{
  "contractName": "NFTCollateral",
  "abi": [
    {
      "inputs": [
        {
          "internalType": "address",
          "name": "token",
          "type": "address"
        }
      ],
      "name": "AlreadySupported",
      "type": "error"
    },
    {
      "inputs": [],
      "name": "InvalidNFT",
      "type": "error"
    },
    {
      "inputs": [],
      "name": "InvalidPrice",
      "type": "error"
    },
    {
      "inputs": [
        {
          "internalType": "enum PoolStructs.TokenType",
          "name": "tokenType",
          "type": "uint8"
        }
      ],
      "name": "InvalidTokenType",
      "type": "error"
    },
    {
      "inputs": [],
      "name": "TokenNotSupported",
      "type": "error"
    },
    {
      "anonymous": false,
      "inputs": [
        {
          "indexed": false,
          "internalType": "address",
          "name": "token",
          "type": "address"
        },
        {
          "indexed": false,
          "internalType": "enum PoolStructs.TokenType",
          "name": "tokenType",
          "type": "uint8"
        }
      ],
      "name": "AddSupportedToken",
      "type": "event"
    },
    {
      "inputs": [],
      "name": "BLOCKS_PER_YEAR",
      "outputs": [
        {
          "internalType": "uint256",
          "name": "",
          "type": "uint256"
        }
      ],
      "stateMutability": "view",
      "type": "function"
    },
    {
      "inputs": [],
      "name": "BPS",
      "outputs": [
        {
          "internalType": "uint256",
          "name": "",
          "type": "uint256"
        }
      ],
      "stateMutability": "view",
      "type": "function"
    },
    {
      "inputs": [],
      "name": "PRECISION",
      "outputs": [
        {
          "internalType": "uint256",
          "name": "",
          "type": "uint256"
        }
      ],
      "stateMutability": "view",
      "type": "function"
    },
    {
      "inputs": [
        {
          "internalType": "address",
          "name": "token",
          "type": "address"
        }
      ],
      "name": "getTokenPrice",
      "outputs": [
        {
          "internalType": "uint256",
          "name": "price",
          "type": "uint256"
        }
      ],
      "stateMutability": "view",
      "type": "function"
    },
    {
      "inputs": [
        {
          "internalType": "address",
          "name": "account",
          "type": "address"
        },
        {
          "internalType": "address",
          "name": "nftAddress",
          "type": "address"
        },
        {
          "internalType": "uint256",
          "name": "tokenId",
          "type": "uint256"
        }
      ],
      "name": "hasDepositedNFT",
      "outputs": [
        {
          "internalType": "bool",
          "name": "",
          "type": "bool"
        }
      ],
      "stateMutability": "view",
      "type": "function"
    },
    {
      "inputs": [
        {
          "internalType": "address",
          "name": "account",
          "type": "address"
        },
        {
          "internalType": "address",
          "name": "nftAddress",
          "type": "address"
        }
      ],
      "name": "getDepositedNFTs",
      "outputs": [
        {
          "internalType": "uint256[]",
          "name": "",
          "type": "uint256[]"
        }
      ],
      "stateMutability": "view",
      "type": "function"
    },
    {
      "inputs": [
        {
          "internalType": "address",
          "name": "account",
          "type": "address"
        },
        {
          "internalType": "address",
          "name": "nftAddress",
          "type": "address"
        }
      ],
      "name": "getDepositedNFTCount",
      "outputs": [
        {
          "internalType": "uint256",
          "name": "",
          "type": "uint256"
        }
      ],
      "stateMutability": "view",
      "type": "function"
    },
    {
      "inputs": [
        {
          "internalType": "address",
          "name": "",
          "type": "address"
        },
        {
          "internalType": "address",
          "name": "",
          "type": "address"
        },
        {
          "internalType": "uint256",
          "name": "",
          "type": "uint256"
        },
        {
          "internalType": "bytes",
          "name": "",
          "type": "bytes"
        }
      ],
      "name": "onERC721Received",
      "outputs": [
        {
          "internalType": "bytes4",
          "name": "",
          "type": "bytes4"
        }
      ],
      "stateMutability": "pure",
      "type": "function"
    }
  ],
  "bytecode": "0x608060405234801561001057600080fd5b50610735806100206000396000f3fe608060405234801561001057600080fd5b50600436106100885760003560e01c8063b4240c991161005b578063b4240c9914610111578063d02641a014610124578063d37db1d214610137578063f6aa13f21461014157600080fd5b8063150b7a021461008d578063249d39e9146100ca57806326b45de5146100e2578063aaf5eb6814610102575b600080fd5b6100ac61009b3660046103fc565b630a85bd0160e11b95945050505050565b6040516001600160e01b031990911681526020015b60405180910390f35b6100d4620186a081565b6040519081526020016100c1565b6100f56100f0366004610497565b610164565b6040516100c191906104ca565b6100d4670de0b6b3a764000081565b6100d461011f366004610497565b61019e565b6100d461013236600461050e565b6101ce565b6100d46220148081565b61015461014f366004610529565b610228565b60405190151581526020016100c1565b6001600160a01b03808316600090815260036020908152604080832093851683529290522060609061019590610261565b90505b92915050565b6001600160a01b03808316600090815260036020908152604080832093851683529290529081206101959061026e565b6001600160a01b038116600090815260026020526040812054600160a81b900460ff166101fd57506000919050565b6001600160a01b038083166000908152600260205260409020541661022181610278565b9392505050565b6001600160a01b0380841660009081526003602090815260408083209386168352929052908120610259908361036c565b949350505050565b6060600061022183610384565b6000610198825490565b6000806000806000856001600160a01b031663feaf968c6040518163ffffffff1660e01b815260040160a060405180830381865afa1580156102be573d6000803e3d6000fd5b505050506040513d601f19601f820116820180604052508101906102e2919061057f565b9450945050935093506000831315806102f9575081155b8061031b57508369ffffffffffffffffffff168169ffffffffffffffffffff16105b806103305750611c2061032e83426105e5565b115b1561034d5760405162bfc92160e01b815260040160405180910390fd5b610358600a806106dc565b61036290846106e8565b9695505050505050565b60008181526001830160205260408120541515610195565b6060816000018054806020026020016040519081016040528092919081815260200182805480156103d457602002820191906000526020600020905b8154815260200190600101908083116103c0575b50505050509050919050565b80356001600160a01b03811681146103f757600080fd5b919050565b60008060008060006080868803121561041457600080fd5b61041d866103e0565b945061042b602087016103e0565b935060408601359250606086013567ffffffffffffffff8082111561044f57600080fd5b818801915088601f83011261046357600080fd5b81358181111561047257600080fd5b89602082850101111561048457600080fd5b9699959850939650602001949392505050565b600080604083850312156104aa57600080fd5b6104b3836103e0565b91506104c1602084016103e0565b90509250929050565b6020808252825182820181905260009190848201906040850190845b81811015610502578351835292840192918401916001016104e6565b50909695505050505050565b60006020828403121561052057600080fd5b610195826103e0565b60008060006060848603121561053e57600080fd5b610547846103e0565b9250610555602085016103e0565b9150604084013590509250925092565b805169ffffffffffffffffffff811681146103f757600080fd5b600080600080600060a0868803121561059757600080fd5b6105a086610565565b94506020860151935060408601519250606086015191506105c360808701610565565b90509295509295909350565b634e487b7160e01b600052601160045260246000fd5b81810381811115610198576101986105cf565b600181815b80851115610633578160001904821115610619576106196105cf565b8085161561062657918102915b93841c93908002906105fd565b509250929050565b60008261064a57506001610198565b8161065757506000610198565b816001811461066d576002811461067757610693565b6001915050610198565b60ff841115610688576106886105cf565b50506001821b610198565b5060208310610133831016604e8410600b84101617156106b6575081810a610198565b6106c083836105f8565b80600019048211156106d4576106d46105cf565b029392505050565b6000610195838361063b565b8082028115828204841417610198576101986105cf56fea2646970667358221220789c3e5a30e5e6cc6b16fc65b945c61f6de7c54d5fa641ae8e197140dfe2864564736f6c63430008140033",
  "immutableReferences": {},
  "source": "// SPDX-License-Identifier: MIT\n\npragma solidity ^0.8.18;\n\nimport {TokenSupport} from \"./TokenSupport.sol\";\nimport \"@openzeppelin/contracts/token/ERC721/IERC721.sol\";\nimport \"@openzeppelin/contracts/token/ERC721/IERC721Receiver.sol\";\nimport \"@openzeppelin/contracts/utils/structs/EnumerableSet.sol\";\nimport \"./interfaces/PoolStructs.sol\";\n\n/**\n * @title NFT Collateral\n * @dev used for handling the deposit and withdrawal of NFTs as collateral.\n */\ncontract NFTCollateral is TokenSupport, IERC721Receiver {\n    using EnumerableSet for EnumerableSet.UintSet;\n\n    error InvalidNFT();\n\n    // track deposited NFTs for each user and NFT collection\n    mapping(address user => mapping(address nft => EnumerableSet.UintSet tokenIds)) depositedNFT;\n\n    /**\n     * @dev Internal function to deposit an NFT into the contract.\n     * @dev will revert if NFT is not allowed as collateral.\n     * @param nftAddress The address of the NFT contract.\n     * @param tokenId The ID of the NFT.\n     */\n    function _depositNFT(address nftAddress, uint256 tokenId) internal {\n        allowedToken(nftAddress);\n        IERC721(nftAddress).safeTransferFrom(\n            msg.sender,\n            address(this),\n            tokenId\n        );\n        depositedNFT[msg.sender][nftAddress].add(tokenId);\n    }\n\n    /**\n     * @dev Internal function to withdraw an NFT from the contract.\n     * @dev will revert if owner did not deposit NFT.\n     * @param owner The current owner of the NFT.\n     * @param recipient The recipient of the withdrawn NFT.\n     * @param nftAddress The address of the NFT contract.\n     * @param tokenId The ID of the NFT.\n     */\n    function _withdrawNFT(\n        address owner,\n        address recipient,\n        address nftAddress,\n        uint256 tokenId\n    ) internal {\n        if (!hasDepositedNFT(owner, nftAddress, tokenId)) revert InvalidNFT();\n        depositedNFT[owner][nftAddress].remove(tokenId);\n        IERC721(nftAddress).safeTransferFrom(address(this), recipient, tokenId);\n    }\n\n    /**\n     * @dev Checks if a specific NFT has been deposited by a user.\n     * @param account The address of the user.\n     * @param nftAddress The address of the NFT contract.\n     * @param tokenId The ID of the NFT.\n     * @return Whether the NFT has been deposited by the user.\n     */\n    function hasDepositedNFT(\n        address account,\n        address nftAddress,\n        uint256 tokenId\n    ) public view returns (bool) {\n        return depositedNFT[account][nftAddress].contains(tokenId);\n    }\n\n    /**\n     * @dev Gets the list of NFTs deposited by a user for a specific NFT contract.\n     * @param account The address of the user.\n     * @param nftAddress The address of the NFT contract.\n     */\n    function getDepositedNFTs(\n        address account,\n        address nftAddress\n    ) public view returns (uint256[] memory) {\n        return depositedNFT[account][nftAddress].values();\n    }\n\n    /**\n     * @dev Gets the count of NFTs deposited by a user for a specific NFT contract.\n     * @param account The address of the user.\n     * @param nftAddress The address of the NFT contract.\n     */\n    function getDepositedNFTCount(\n        address account,\n        address nftAddress\n    ) public view returns (uint256) {\n        return depositedNFT[account][nftAddress].length();\n    }\n\n    /**\n     * @dev ERC721 receiver callback to accept incoming NFT transfers.\n     */\n    function onERC721Received(\n        address,\n        address,\n        uint256,\n        bytes calldata\n    ) external pure override returns (bytes4) {\n        return IERC721Receiver.onERC721Received.selector;\n    }\n}\n",
  "sourcePath": "/Users/yosgi/freelancer/DeFiForge/contracts/contracts/NFTCollateral.sol",
  "compiler": {
    "name": "solc",
    "version": "0.8.20+commit.a1b79de6.Emscripten.clang"
  },
  "schemaVersion": "3.4.16",
  "updatedAt": "2024-12-06T09:30:41.175Z",
  "devdoc": {
    "details": "used for handling the deposit and withdrawal of NFTs as collateral.",
    "kind": "dev",
    "methods": {
      "getDepositedNFTCount(address,address)": {
        "details": "Gets the count of NFTs deposited by a user for a specific NFT contract.",
        "params": {
          "account": "The address of the user.",
          "nftAddress": "The address of the NFT contract."
        }
      },
      "getDepositedNFTs(address,address)": {
        "details": "Gets the list of NFTs deposited by a user for a specific NFT contract.",
        "params": {
          "account": "The address of the user.",
          "nftAddress": "The address of the NFT contract."
        }
      },
      "getTokenPrice(address)": {
        "details": "Gets the USD price of a supported token using Chainlink Oracle.",
        "params": {
          "token": "The address of the token."
        }
      },
      "hasDepositedNFT(address,address,uint256)": {
        "details": "Checks if a specific NFT has been deposited by a user.",
        "params": {
          "account": "The address of the user.",
          "nftAddress": "The address of the NFT contract.",
          "tokenId": "The ID of the NFT."
        },
        "returns": {
          "_0": "Whether the NFT has been deposited by the user."
        }
      },
      "onERC721Received(address,address,uint256,bytes)": {
        "details": "ERC721 receiver callback to accept incoming NFT transfers."
      }
    },
    "title": "NFT Collateral",
    "version": 1
  },
  "userdoc": {
    "errors": {
      "TokenNotSupported()": [
        {
          "notice": "ERRORS "
        }
      ]
    },
    "events": {
      "AddSupportedToken(address,uint8)": {
        "notice": "EVENTS "
      }
    },
    "kind": "user",
    "methods": {},
    "version": 1
  }
}