{
  "contractName": "Saving",
  "abi": [
    {
      "inputs": [
        {
          "internalType": "address",
          "name": "tokenAddr",
          "type": "address"
        },
        {
          "internalType": "address",
          "name": "feeAddr",
          "type": "address"
        }
      ],
      "stateMutability": "nonpayable",
      "type": "constructor"
    },
    {
      "inputs": [
        {
          "internalType": "address",
          "name": "owner",
          "type": "address"
        }
      ],
      "name": "OwnableInvalidOwner",
      "type": "error"
    },
    {
      "inputs": [
        {
          "internalType": "address",
          "name": "account",
          "type": "address"
        }
      ],
      "name": "OwnableUnauthorizedAccount",
      "type": "error"
    },
    {
      "inputs": [],
      "name": "ReentrancyGuardReentrantCall",
      "type": "error"
    },
    {
      "inputs": [
        {
          "internalType": "address",
          "name": "token",
          "type": "address"
        }
      ],
      "name": "SafeERC20FailedOperation",
      "type": "error"
    },
    {
      "anonymous": false,
      "inputs": [
        {
          "indexed": true,
          "internalType": "address",
          "name": "user",
          "type": "address"
        },
        {
          "indexed": false,
          "internalType": "uint256",
          "name": "amount",
          "type": "uint256"
        }
      ],
      "name": "Deposit",
      "type": "event"
    },
    {
      "anonymous": false,
      "inputs": [
        {
          "indexed": true,
          "internalType": "address",
          "name": "user",
          "type": "address"
        },
        {
          "indexed": false,
          "internalType": "uint256",
          "name": "amount",
          "type": "uint256"
        }
      ],
      "name": "EmergencyWithdraw",
      "type": "event"
    },
    {
      "anonymous": false,
      "inputs": [
        {
          "indexed": true,
          "internalType": "address",
          "name": "previousOwner",
          "type": "address"
        },
        {
          "indexed": true,
          "internalType": "address",
          "name": "newOwner",
          "type": "address"
        }
      ],
      "name": "OwnershipTransferred",
      "type": "event"
    },
    {
      "anonymous": false,
      "inputs": [
        {
          "indexed": true,
          "internalType": "address",
          "name": "user",
          "type": "address"
        },
        {
          "indexed": false,
          "internalType": "uint256",
          "name": "amount",
          "type": "uint256"
        }
      ],
      "name": "Withdraw",
      "type": "event"
    },
    {
      "inputs": [],
      "name": "apy1",
      "outputs": [
        {
          "internalType": "uint256",
          "name": "",
          "type": "uint256"
        }
      ],
      "stateMutability": "view",
      "type": "function"
    },
    {
      "inputs": [],
      "name": "apy2",
      "outputs": [
        {
          "internalType": "uint256",
          "name": "",
          "type": "uint256"
        }
      ],
      "stateMutability": "view",
      "type": "function"
    },
    {
      "inputs": [],
      "name": "apy3",
      "outputs": [
        {
          "internalType": "uint256",
          "name": "",
          "type": "uint256"
        }
      ],
      "stateMutability": "view",
      "type": "function"
    },
    {
      "inputs": [],
      "name": "exitPenaltyPerc",
      "outputs": [
        {
          "internalType": "uint256",
          "name": "",
          "type": "uint256"
        }
      ],
      "stateMutability": "view",
      "type": "function"
    },
    {
      "inputs": [],
      "name": "feeAddress",
      "outputs": [
        {
          "internalType": "address",
          "name": "",
          "type": "address"
        }
      ],
      "stateMutability": "view",
      "type": "function"
    },
    {
      "inputs": [],
      "name": "owner",
      "outputs": [
        {
          "internalType": "address",
          "name": "",
          "type": "address"
        }
      ],
      "stateMutability": "view",
      "type": "function"
    },
    {
      "inputs": [],
      "name": "renounceOwnership",
      "outputs": [],
      "stateMutability": "nonpayable",
      "type": "function"
    },
    {
      "inputs": [],
      "name": "rewardToken",
      "outputs": [
        {
          "internalType": "contract IERC20",
          "name": "",
          "type": "address"
        }
      ],
      "stateMutability": "view",
      "type": "function"
    },
    {
      "inputs": [],
      "name": "savingToken",
      "outputs": [
        {
          "internalType": "contract IERC20",
          "name": "",
          "type": "address"
        }
      ],
      "stateMutability": "view",
      "type": "function"
    },
    {
      "inputs": [],
      "name": "startedTimestamp",
      "outputs": [
        {
          "internalType": "uint256",
          "name": "",
          "type": "uint256"
        }
      ],
      "stateMutability": "view",
      "type": "function"
    },
    {
      "inputs": [],
      "name": "totalStaked",
      "outputs": [
        {
          "internalType": "uint256",
          "name": "",
          "type": "uint256"
        }
      ],
      "stateMutability": "view",
      "type": "function"
    },
    {
      "inputs": [
        {
          "internalType": "address",
          "name": "newOwner",
          "type": "address"
        }
      ],
      "name": "transferOwnership",
      "outputs": [],
      "stateMutability": "nonpayable",
      "type": "function"
    },
    {
      "inputs": [],
      "name": "withdrawFee",
      "outputs": [
        {
          "internalType": "uint256",
          "name": "",
          "type": "uint256"
        }
      ],
      "stateMutability": "view",
      "type": "function"
    },
    {
      "inputs": [],
      "name": "startReward",
      "outputs": [],
      "stateMutability": "nonpayable",
      "type": "function"
    },
    {
      "inputs": [],
      "name": "stopReward",
      "outputs": [],
      "stateMutability": "nonpayable",
      "type": "function"
    },
    {
      "inputs": [
        {
          "internalType": "address",
          "name": "_user",
          "type": "address"
        }
      ],
      "name": "getStakedTokens",
      "outputs": [
        {
          "internalType": "uint256",
          "name": "",
          "type": "uint256"
        }
      ],
      "stateMutability": "view",
      "type": "function"
    },
    {
      "inputs": [
        {
          "internalType": "address",
          "name": "_user",
          "type": "address"
        }
      ],
      "name": "getStakedItemLength",
      "outputs": [
        {
          "internalType": "uint256",
          "name": "",
          "type": "uint256"
        }
      ],
      "stateMutability": "view",
      "type": "function"
    },
    {
      "inputs": [
        {
          "internalType": "address",
          "name": "_user",
          "type": "address"
        },
        {
          "internalType": "uint256",
          "name": "_index",
          "type": "uint256"
        }
      ],
      "name": "getStakedItemAPY",
      "outputs": [
        {
          "internalType": "uint256",
          "name": "",
          "type": "uint256"
        }
      ],
      "stateMutability": "view",
      "type": "function"
    },
    {
      "inputs": [
        {
          "internalType": "address",
          "name": "_user",
          "type": "address"
        },
        {
          "internalType": "uint256",
          "name": "_index",
          "type": "uint256"
        }
      ],
      "name": "getStakedItemDuration",
      "outputs": [
        {
          "internalType": "uint256",
          "name": "",
          "type": "uint256"
        }
      ],
      "stateMutability": "view",
      "type": "function"
    },
    {
      "inputs": [
        {
          "internalType": "address",
          "name": "_user",
          "type": "address"
        },
        {
          "internalType": "uint256",
          "name": "_index",
          "type": "uint256"
        }
      ],
      "name": "getStakedItemAmount",
      "outputs": [
        {
          "internalType": "uint256",
          "name": "",
          "type": "uint256"
        }
      ],
      "stateMutability": "view",
      "type": "function"
    },
    {
      "inputs": [
        {
          "internalType": "address",
          "name": "_user",
          "type": "address"
        },
        {
          "internalType": "uint256",
          "name": "_index",
          "type": "uint256"
        }
      ],
      "name": "getStakedItemReward",
      "outputs": [
        {
          "internalType": "uint256",
          "name": "",
          "type": "uint256"
        }
      ],
      "stateMutability": "view",
      "type": "function"
    },
    {
      "inputs": [
        {
          "internalType": "address",
          "name": "_user",
          "type": "address"
        },
        {
          "internalType": "uint256",
          "name": "_index",
          "type": "uint256"
        }
      ],
      "name": "getStakedItemTimestamp",
      "outputs": [
        {
          "internalType": "uint256",
          "name": "",
          "type": "uint256"
        }
      ],
      "stateMutability": "view",
      "type": "function"
    },
    {
      "inputs": [
        {
          "internalType": "address",
          "name": "_user",
          "type": "address"
        },
        {
          "internalType": "uint256",
          "name": "_index",
          "type": "uint256"
        }
      ],
      "name": "getStakedItemElapsed",
      "outputs": [
        {
          "internalType": "uint256",
          "name": "",
          "type": "uint256"
        }
      ],
      "stateMutability": "view",
      "type": "function"
    },
    {
      "inputs": [
        {
          "internalType": "uint256",
          "name": "_amount",
          "type": "uint256"
        },
        {
          "internalType": "uint256",
          "name": "_option",
          "type": "uint256"
        }
      ],
      "name": "deposit",
      "outputs": [],
      "stateMutability": "nonpayable",
      "type": "function"
    },
    {
      "inputs": [
        {
          "internalType": "uint256",
          "name": "_index",
          "type": "uint256"
        }
      ],
      "name": "withdraw",
      "outputs": [],
      "stateMutability": "nonpayable",
      "type": "function"
    },
    {
      "inputs": [
        {
          "internalType": "uint256",
          "name": "_amount",
          "type": "uint256"
        }
      ],
      "name": "withdrawEmergencyReward",
      "outputs": [],
      "stateMutability": "nonpayable",
      "type": "function"
    },
    {
      "inputs": [],
      "name": "rewardsRemaining",
      "outputs": [
        {
          "internalType": "uint256",
          "name": "",
          "type": "uint256"
        }
      ],
      "stateMutability": "view",
      "type": "function"
    },
    {
      "inputs": [
        {
          "internalType": "uint256",
          "name": "newApy1",
          "type": "uint256"
        },
        {
          "internalType": "uint256",
          "name": "newApy2",
          "type": "uint256"
        },
        {
          "internalType": "uint256",
          "name": "newApy3",
          "type": "uint256"
        }
      ],
      "name": "updateApy",
      "outputs": [],
      "stateMutability": "nonpayable",
      "type": "function"
    },
    {
      "inputs": [
        {
          "internalType": "uint256",
          "name": "newPenaltyPerc",
          "type": "uint256"
        }
      ],
      "name": "updateExitPenalty",
      "outputs": [],
      "stateMutability": "nonpayable",
      "type": "function"
    },
    {
      "inputs": [
        {
          "internalType": "address",
          "name": "newFeeAddress",
          "type": "address"
        },
        {
          "internalType": "uint256",
          "name": "newWithdrawFee",
          "type": "uint256"
        }
      ],
      "name": "updateFee",
      "outputs": [],
      "stateMutability": "nonpayable",
      "type": "function"
    },
    {
      "inputs": [],
      "name": "reset",
      "outputs": [],
      "stateMutability": "nonpayable",
      "type": "function"
    }
  ],
  "bytecode": "0x60c06040523480156200001157600080fd5b5060405162001af138038062001af183398101604081905262000034916200012a565b33806200005b57604051631e4fbdf760e01b81526000600482015260240160405180910390fd5b6200006681620000bd565b50600180556001600160a01b03918216608081905260a052600380546001600160a01b03191691909216179055600a6005908155600f600655601b6007556008556002600981905560009081905560045562000162565b600080546001600160a01b038381166001600160a01b0319831681178455604051919092169283917f8be0079c531659141344cd1fd0a4f28419497f9722a3daafe3b4186f6b6457e09190a35050565b80516001600160a01b03811681146200012557600080fd5b919050565b600080604083850312156200013e57600080fd5b62000149836200010d565b915062000159602084016200010d565b90509250929050565b60805160a05161190e620001e36000396000818161041a015281816104680152818161053e01528181610772015281816108a701528181610ca301528181610f390152610fbb0152600081816103840152818161082c0152818161095c015281816109d2015281816111240152818161119e01526111e8015261190e6000f3fe608060405234801561001057600080fd5b50600436106101e55760003560e01c8063817b1cd21161010f578063c8aa47b6116100a2578063e941fa7811610071578063e941fa78146103f0578063ef916739146103f9578063f2fde38b14610402578063f7c618c11461041557600080fd5b8063c8aa47b6146103af578063d826f88f146103c2578063da6cfb59146103ca578063e2bbb158146103dd57600080fd5b806394be7197116100de57806394be719714610359578063a28dc95a1461036c578063bdd7f3f31461037f578063c86263ea146103a657600080fd5b8063817b1cd2146103195780638da5cb5b146103225780638e0b019814610333578063945925c31461034657600080fd5b806367bd01f81161018757806378c196f31161015657806378c196f3146102d45780637b280def146102dc5780637eb72d95146102e557806380dc06721461031157600080fd5b806367bd01f81461029e578063715018a6146102b157806371e1de00146102b9578063746c8ae1146102cc57600080fd5b806341275358116101c35780634127535814610238578063599a84cd1461026357806361959a1b1461026c57806363c28db11461027557600080fd5b80631c8d74a0146101ea578063270f4797146101ff5780632e1a7d4d14610225575b600080fd5b6101fd6101f8366004611711565b61043c565b005b61021261020d366004611746565b610568565b6040519081526020015b60405180910390f35b6101fd610233366004611711565b6105d4565b60035461024b906001600160a01b031681565b6040516001600160a01b03909116815260200161021c565b61021260075481565b61021260025481565b610212610283366004611770565b6001600160a01b03166000908152600a602052604090205490565b6102126102ac366004611746565b610b20565b6101fd610b8b565b6101fd6102c736600461178b565b610b9f565b6101fd610c23565b610212610c81565b61021260085481565b6102126102f3366004611770565b6001600160a01b03166000908152600a602052604090206001015490565b6101fd610d2f565b61021260045481565b6000546001600160a01b031661024b565b6101fd610341366004611711565b610d4d565b610212610354366004611746565b610dab565b6101fd610367366004611746565b610dbe565b61021261037a366004611746565b610dec565b61024b7f000000000000000000000000000000000000000000000000000000000000000081565b61021260065481565b6102126103bd366004611746565b610e91565b6101fd610f19565b6102126103d8366004611746565b610fea565b6101fd6103eb3660046117b7565b611055565b61021260095481565b61021260055481565b6101fd610410366004611770565b61136c565b61024b7f000000000000000000000000000000000000000000000000000000000000000081565b6104446113a7565b600480546040516370a0823160e01b81523092810192909252906001600160a01b037f000000000000000000000000000000000000000000000000000000000000000016906370a0823190602401602060405180830381865afa1580156104af573d6000803e3d6000fd5b505050506040513d601f19601f820116820180604052508101906104d391906117d9565b6104dd9190611808565b8111156105315760405162461bcd60e51b815260206004820152601d60248201527f6e6f7420656e6f75676820746f6b656e7320746f2074616b65206f757400000060448201526064015b60405180910390fd5b6105656001600160a01b037f00000000000000000000000000000000000000000000000000000000000000001633836113d4565b50565b6001600160a01b0382166000908152600a60205260408120600181015483106105a35760405162461bcd60e51b81526004016105289061181b565b8060010183815481106105b8576105b8611847565b9060005260206000209060040201600201549150505b92915050565b6105dc611438565b6000600254116106205760405162461bcd60e51b815260206004820152600f60248201526e139bdd081cdd185c9d1959081e595d608a1b6044820152606401610528565b336000908152600a60205260409020600181015482106106525760405162461bcd60e51b81526004016105289061181b565b600081600101838154811061066957610669611847565b9060005260206000209060040201600201549050808260000160008282546106919190611808565b9250508190555080600460008282546106aa9190611808565b9250508190555060008260010184815481106106c8576106c8611847565b90600052602060002090600402016003015460025411156106f7576002546106f09042611808565b905061072c565b82600101848154811061070c5761070c611847565b906000526020600020906004020160030154426107299190611808565b90505b82600101848154811061074157610741611847565b90600052602060002090600402016001015481101561088f576040516370a0823160e01b81523060048201526000907f00000000000000000000000000000000000000000000000000000000000000006001600160a01b0316906370a0823190602401602060405180830381865afa1580156107c1573d6000803e3d6000fd5b505050506040513d601f19601f820116820180604052508101906107e591906117d9565b90506064600854846107f7919061185d565b6108019190611874565b61080b9084611808565b925080831115610819578092505b8215610889576108536001600160a01b037f00000000000000000000000000000000000000000000000000000000000000001633856113d4565b60405183815233907f5fafa99d0643513820be26656b45130b01e1c03062e1266bf36f88cbd3bd96959060200160405180910390a25b50610a32565b6040516370a0823160e01b81523060048201526000907f00000000000000000000000000000000000000000000000000000000000000006001600160a01b0316906370a0823190602401602060405180830381865afa1580156108f6573d6000803e3d6000fd5b505050506040513d601f19601f8201168201806040525081019061091a91906117d9565b9050600060646009548561092e919061185d565b6109389190611874565b9050818111156109455750805b801561098557600354610985906001600160a01b037f000000000000000000000000000000000000000000000000000000000000000081169116836113d4565b61098f8183611808565b915061099b8185611808565b93506109a73387611462565b6109b19085611896565b9350818411156109bf578193505b8315610a2f576109f96001600160a01b037f00000000000000000000000000000000000000000000000000000000000000001633866113d4565b60405184815233907f884edad9ce6fa2440d8a54cc123490eb96d2768479d49ff9c7366125a94243649060200160405180910390a25b50505b835b600184810154610a449190611808565b811015610ad35783600101816001610a5c9190611896565b81548110610a6c57610a6c611847565b9060005260206000209060040201846001018281548110610a8f57610a8f611847565b600091825260209091208254600490920201908155600180830154908201556002808301549082015560039182015491015580610acb816118a9565b915050610a34565b5082600101805480610ae757610ae76118c2565b600082815260208120600460001990930192830201818155600181018290556002810182905560030155905550610565915061160b9050565b6001600160a01b0382166000908152600a6020526040812060018101548310610b5b5760405162461bcd60e51b81526004016105289061181b565b806001018381548110610b7057610b70611847565b90600052602060002090600402016001015491505092915050565b610b936113a7565b610b9d6000611611565b565b610ba76113a7565b6127108311158015610bbb57506127108211155b8015610bc957506127108111155b610c155760405162461bcd60e51b815260206004820152601860248201527f415059206d7573742062652062656c6f772031303030302500000000000000006044820152606401610528565b600592909255600655600755565b610c2b6113a7565b60025415610c7b5760405162461bcd60e51b815260206004820152601b60248201527f43616e206f6e6c792073746172742072657761726473206f6e636500000000006044820152606401610528565b42600255565b6040516370a0823160e01b815230600482015260009081906001600160a01b037f000000000000000000000000000000000000000000000000000000000000000016906370a0823190602401602060405180830381865afa158015610cea573d6000803e3d6000fd5b505050506040513d601f19601f82011682018060405250810190610d0e91906117d9565b9050600454811115610d27576004546105ce9082611808565b506000919050565b610d376113a7565b6000600281905560058190556006819055600755565b610d556113a7565b6014811115610da65760405162461bcd60e51b815260206004820152601b60248201527f4d6179206e6f742073657420686967686572207468616e2032302500000000006044820152606401610528565b600855565b6000610db78383611462565b9392505050565b610dc66113a7565b600380546001600160a01b0319166001600160a01b039390931692909217909155600955565b6001600160a01b0382166000908152600a6020526040812060018101548310610e275760405162461bcd60e51b81526004016105289061181b565b806001018381548110610e3c57610e3c611847565b9060005260206000209060040201600301546002541115610e615750506002546105ce565b806001018381548110610e7657610e76611847565b90600052602060002090600402016003015491505092915050565b6001600160a01b0382166000908152600a6020526040812060018101548310610ecc5760405162461bcd60e51b81526004016105289061181b565b6000816001018481548110610ee357610ee3611847565b9060005260206000209060040201600301549050806002541115610f0657506002545b610f108142611808565b95945050505050565b610f216113a7565b6040516370a0823160e01b81523060048201526000907f00000000000000000000000000000000000000000000000000000000000000006001600160a01b0316906370a0823190602401602060405180830381865afa158015610f88573d6000803e3d6000fd5b505050506040513d601f19601f82011682018060405250810190610fac91906117d9565b9050610fe26001600160a01b037f00000000000000000000000000000000000000000000000000000000000000001633836113d4565b506000600455565b6001600160a01b0382166000908152600a60205260408120600181015483106110255760405162461bcd60e51b81526004016105289061181b565b80600101838154811061103a5761103a611847565b90600052602060002090600402016000015491505092915050565b61105d611438565b6000821161109e5760405162461bcd60e51b815260206004820152600e60248201526d125b9d985b1a5908105b5bdd5b9d60921b6044820152606401610528565b80600114806110ad5750806002145b806110b85750806003145b6110f55760405162461bcd60e51b815260206004820152600e60248201526d24b73b30b634b21027b83a34b7b760911b6044820152606401610528565b336000908152600a602052604080822090516370a0823160e01b81523060048201529091906001600160a01b037f000000000000000000000000000000000000000000000000000000000000000016906370a0823190602401602060405180830381865afa15801561116b573d6000803e3d6000fd5b505050506040513d601f19601f8201168201806040525081019061118f91906117d9565b90506111c66001600160a01b037f000000000000000000000000000000000000000000000000000000000000000016333087611661565b6040516370a0823160e01b815230600482015260009082906001600160a01b037f000000000000000000000000000000000000000000000000000000000000000016906370a0823190602401602060405180830381865afa15801561122f573d6000803e3d6000fd5b505050506040513d601f19601f8201168201806040525081019061125391906117d9565b61125d9190611808565b835490915061126d908290611896565b835560048054829190600090611284908490611896565b92505081905550600080856001036112a457505060055462278d006112c4565b856002036112ba575050600654624f1a006112c4565b5050600754629e34005b6040805160808101825283815260208082018481528284018b815242606085019081526001808c01805480830182556000918252959020955160049095029095019384559151938301939093559151600282015590516003909101555133907fe1fffcc4923d04b559f4d29a8bfc6cda04eb5b0d3c460751c2402c5c5cc9109c90611352908a815260200190565b60405180910390a2505050505061136860018055565b5050565b6113746113a7565b6001600160a01b03811661139e57604051631e4fbdf760e01b815260006004820152602401610528565b61056581611611565b6000546001600160a01b03163314610b9d5760405163118cdaa760e01b8152336004820152602401610528565b6040516001600160a01b0383811660248301526044820183905261143391859182169063a9059cbb906064015b604051602081830303815290604052915060e01b6020820180516001600160e01b0383818316178352505050506116a0565b505050565b60026001540361145b57604051633ee5aeb560e01b815260040160405180910390fd5b6002600155565b6001600160a01b0382166000908152600a602052604081206001810154831061149d5760405162461bcd60e51b81526004016105289061181b565b60025415806114ab57508054155b156114ba5760009150506105ce565b60008160010184815481106114d1576114d1611847565b9060005260206000209060040201600301546002541115611500576002546114f99042611808565b9050611535565b81600101848154811061151557611515611847565b906000526020600020906004020160030154426115329190611808565b90505b81600101848154811061154a5761154a611847565b90600052602060002090600402016001015481111561158d5781600101848154811061157857611578611847565b90600052602060002090600402016001015490505b6301e1338060648360010186815481106115a9576115a9611847565b906000526020600020906004020160000154838560010188815481106115d1576115d1611847565b9060005260206000209060040201600201546115ed919061185d565b6115f7919061185d565b6116019190611874565b610f109190611874565b60018055565b600080546001600160a01b038381166001600160a01b0319831681178455604051919092169283917f8be0079c531659141344cd1fd0a4f28419497f9722a3daafe3b4186f6b6457e09190a35050565b6040516001600160a01b03848116602483015283811660448301526064820183905261169a9186918216906323b872dd90608401611401565b50505050565b600080602060008451602086016000885af1806116c3576040513d6000823e3d81fd5b50506000513d915081156116db5780600114156116e8565b6001600160a01b0384163b155b1561169a57604051635274afe760e01b81526001600160a01b0385166004820152602401610528565b60006020828403121561172357600080fd5b5035919050565b80356001600160a01b038116811461174157600080fd5b919050565b6000806040838503121561175957600080fd5b6117628361172a565b946020939093013593505050565b60006020828403121561178257600080fd5b610db78261172a565b6000806000606084860312156117a057600080fd5b505081359360208301359350604090920135919050565b600080604083850312156117ca57600080fd5b50508035926020909101359150565b6000602082840312156117eb57600080fd5b5051919050565b634e487b7160e01b600052601160045260246000fd5b818103818111156105ce576105ce6117f2565b602080825260129082015271125b99195e081bdd5d081bd988189bdd5b9960721b604082015260600190565b634e487b7160e01b600052603260045260246000fd5b80820281158282048414176105ce576105ce6117f2565b60008261189157634e487b7160e01b600052601260045260246000fd5b500490565b808201808211156105ce576105ce6117f2565b6000600182016118bb576118bb6117f2565b5060010190565b634e487b7160e01b600052603160045260246000fdfea2646970667358221220937866fde1c4f7534b90e5fe280112b0cdec3c810775b6477de4b3aa832cb88964736f6c63430008140033",
  "immutableReferences": {
    "2342": [
      {
        "length": 32,
        "start": 900
      },
      {
        "length": 32,
        "start": 2092
      },
      {
        "length": 32,
        "start": 2396
      },
      {
        "length": 32,
        "start": 2514
      },
      {
        "length": 32,
        "start": 4388
      },
      {
        "length": 32,
        "start": 4510
      },
      {
        "length": 32,
        "start": 4584
      }
    ],
    "2345": [
      {
        "length": 32,
        "start": 1050
      },
      {
        "length": 32,
        "start": 1128
      },
      {
        "length": 32,
        "start": 1342
      },
      {
        "length": 32,
        "start": 1906
      },
      {
        "length": 32,
        "start": 2215
      },
      {
        "length": 32,
        "start": 3235
      },
      {
        "length": 32,
        "start": 3897
      },
      {
        "length": 32,
        "start": 4027
      }
    ]
  },
  "source": "//SPDX-License-Identifier: UNLICENSED\n\npragma solidity ^0.8.17;\n\nimport \"@openzeppelin/contracts/utils/Context.sol\";\nimport \"@openzeppelin/contracts/utils/Address.sol\";\nimport \"@openzeppelin/contracts/access/Ownable.sol\";\nimport \"@openzeppelin/contracts/token/ERC20/IERC20.sol\";\nimport \"@openzeppelin/contracts/token/ERC20/utils/SafeERC20.sol\";\nimport \"@openzeppelin/contracts/utils/ReentrancyGuard.sol\";\n\n\ncontract Saving is Ownable, ReentrancyGuard {\n    using SafeERC20 for IERC20;\n\n    // Deposit Item\n    struct DepositItem {\n        uint256 apy;\n        uint256 duration;\n        uint256 amount;\n        uint256 timestamp;\n    }\n\n    // Info of each user.\n    struct UserInfo {\n        uint256 amount;             // Total amount\n        DepositItem[] depositItems; // Deposited list\n    }\n\n    IERC20 public immutable savingToken;\n    IERC20 public immutable rewardToken;\n\n    uint256 public startedTimestamp;\n    address public feeAddress;\n    uint256 public totalStaked;\n    uint256 public apy1;\n    uint256 public apy2;\n    uint256 public apy3;\n    uint256 public exitPenaltyPerc;\n    uint256 public withdrawFee;\n\n    mapping (address => UserInfo) private userInfo;\n\n    event Deposit(address indexed user, uint256 amount);\n    event Withdraw(address indexed user, uint256 amount);\n    event EmergencyWithdraw(address indexed user, uint256 amount);\n\n    constructor(address tokenAddr, address feeAddr) Ownable(msg.sender) {\n        savingToken = IERC20(tokenAddr);\n        rewardToken = savingToken;\n        feeAddress = feeAddr;\n\n        apy1 = 10;\n        apy2 = 15;\n        apy3 = 27;\n\n        exitPenaltyPerc = 5;\n        withdrawFee = 2;\n        startedTimestamp = 0;\n        totalStaked = 0;\n    }\n\n    function _calculateReward(address _user, uint256 _index) internal view returns (uint256) {\n        UserInfo storage user = userInfo[_user];\n        require(_index < user.depositItems.length, \"Index out of bound\");\n        if (startedTimestamp == 0 || user.amount == 0)\n            return 0;\n        \n        uint256 dt;\n        if (startedTimestamp > user.depositItems[_index].timestamp)\n            dt = block.timestamp - startedTimestamp;\n        else\n            dt = block.timestamp - user.depositItems[_index].timestamp;\n        \n        if (dt > user.depositItems[_index].duration)\n            dt = user.depositItems[_index].duration;\n        \n        return (user.depositItems[_index].amount * dt) * user.depositItems[_index].apy / 100 / 365 days;\n    }\n\n    function startReward() external onlyOwner {\n        require(startedTimestamp == 0, \"Can only start rewards once\");\n        startedTimestamp = block.timestamp;\n    }\n\n    function stopReward() external onlyOwner {\n        startedTimestamp = 0;\n        apy1 = 0;\n        apy2 = 0;\n        apy3 = 0;\n    }\n\n    function getStakedTokens(address _user) external view returns (uint256) {\n        UserInfo storage user = userInfo[_user];\n        return user.amount;\n    }\n\n    function getStakedItemLength(address _user) external view returns (uint256) {\n        UserInfo storage user = userInfo[_user];\n        return user.depositItems.length;\n    }\n\n    function getStakedItemAPY(address _user, uint256 _index) external view returns (uint256) {\n        UserInfo storage user = userInfo[_user];\n        require(_index < user.depositItems.length, \"Index out of bound\");\n        return user.depositItems[_index].apy;\n    }\n\n    function getStakedItemDuration(address _user, uint256 _index) external view returns (uint256) {\n        UserInfo storage user = userInfo[_user];\n        require(_index < user.depositItems.length, \"Index out of bound\");\n        return user.depositItems[_index].duration;\n    }\n\n    function getStakedItemAmount(address _user, uint256 _index) external view returns (uint256) {\n        UserInfo storage user = userInfo[_user];\n        require(_index < user.depositItems.length, \"Index out of bound\");\n        return user.depositItems[_index].amount;\n    }\n\n    function getStakedItemReward(address _user, uint256 _index) external view returns (uint256) {\n        return _calculateReward(_user, _index);\n    }\n\n    function getStakedItemTimestamp(address _user, uint256 _index) external view returns (uint256) {\n        UserInfo storage user = userInfo[_user];\n        require(_index < user.depositItems.length, \"Index out of bound\");\n        if (startedTimestamp > user.depositItems[_index].timestamp)\n            return startedTimestamp;\n        return user.depositItems[_index].timestamp;\n    }\n\n    function getStakedItemElapsed(address _user, uint256 _index) external view returns (uint256) {\n        UserInfo storage user = userInfo[_user];\n        require(_index < user.depositItems.length, \"Index out of bound\");\n\n        uint256 depositTimestamp = user.depositItems[_index].timestamp;\n        if (startedTimestamp > depositTimestamp)\n            depositTimestamp = startedTimestamp;\n\n        return block.timestamp - depositTimestamp;\n    }\n\n    // Stake primary tokens\n    function deposit(uint256 _amount, uint256 _option) public nonReentrant {\n        require(_amount > 0, \"Invalid Amount\");\n        require(_option == 1 || _option == 2 || _option == 3, \"Invalid Option\");\n\n        UserInfo storage user = userInfo[msg.sender];\n        uint256 initialBalance = savingToken.balanceOf(address(this));\n        savingToken.safeTransferFrom(address(msg.sender), address(this), _amount);\n\n        uint256 amountTransferred = savingToken.balanceOf(address(this)) - initialBalance;\n        user.amount = user.amount + amountTransferred;\n        totalStaked += amountTransferred;\n\n        uint256 apy;\n        uint256 duration;\n        if (_option == 1) {\n            apy = apy1;\n            duration = 30 days;\n        }\n        else if (_option == 2) {\n            apy = apy2;\n            duration = 60 days;\n        }\n        else {\n            apy = apy3;\n            duration = 120 days;\n        }\n\n        user.depositItems.push(DepositItem({\n            apy: apy,\n            duration: duration,\n            amount: _amount,\n            timestamp: block.timestamp\n        }));\n\n        emit Deposit(msg.sender, _amount);\n    }\n\n    // Withdraw primary tokens from STAKING.\n    function withdraw(uint256 _index) public nonReentrant {\n        require(startedTimestamp > 0, \"Not started yet\");\n        \n        UserInfo storage user = userInfo[msg.sender];\n        require(_index < user.depositItems.length, \"Index out of bound\");\n        uint256 amount = user.depositItems[_index].amount;\n        user.amount -= amount;\n        totalStaked -= amount;\n\n        uint256 dt;\n        if (startedTimestamp > user.depositItems[_index].timestamp)\n            dt = block.timestamp - startedTimestamp;\n        else\n            dt = block.timestamp - user.depositItems[_index].timestamp;\n        \n        if (dt < user.depositItems[_index].duration) {\n            // Early withdraw\n            uint256 total = rewardToken.balanceOf(address(this));\n            amount -= amount * exitPenaltyPerc / 100;\n            if (amount > total)\n                amount = total;\n            if (amount > 0) {\n                savingToken.safeTransfer(address(msg.sender), amount);\n                emit EmergencyWithdraw(msg.sender, amount);\n            }\n        }\n        else {\n            // Normal Withdraw\n            uint256 total = rewardToken.balanceOf(address(this));\n            // Send Fee\n            uint256 fee = amount * withdrawFee / 100;\n            if (fee > total)\n                fee = total;\n            if (fee > 0)\n                savingToken.safeTransfer(feeAddress, fee);\n\n            total -= fee;\n            // Send Amount + Reward to user\n            amount -= fee;\n            amount += _calculateReward(msg.sender, _index);\n            if (amount > total)\n                amount = total;\n            if (amount > 0) {\n                savingToken.safeTransfer(address(msg.sender), amount);\n                emit Withdraw(msg.sender, amount);\n            }\n        }\n\n        for (uint256 i = _index; i < user.depositItems.length - 1; i++)\n            user.depositItems[i] = user.depositItems[i + 1];\n        user.depositItems.pop();\n    }\n\n    // Withdraw reward. EMERGENCY ONLY. This allows the owner to migrate rewards to a new staking pool since we are not minting new tokens.\n    function withdrawEmergencyReward(uint256 _amount) external onlyOwner {\n        require(_amount <= rewardToken.balanceOf(address(this)) - totalStaked, 'not enough tokens to take out');\n        rewardToken.safeTransfer(address(msg.sender), _amount);\n    }\n\n    function rewardsRemaining() public view returns (uint256) {\n        uint256 reward = rewardToken.balanceOf(address(this));\n        if (reward > totalStaked)\n            reward -= totalStaked;\n        else\n            reward = 0;\n        return reward;\n    }\n\n    function updateApy(uint256 newApy1, uint256 newApy2, uint256 newApy3) external onlyOwner {\n        require(newApy1 <= 10000 && newApy2 <= 10000 && newApy3 <= 10000, \"APY must be below 10000%\");\n        apy1 = newApy1;\n        apy2 = newApy2;\n        apy3 = newApy3;\n    }\n\n    function updateExitPenalty(uint256 newPenaltyPerc) external onlyOwner {\n        require(newPenaltyPerc <= 20, \"May not set higher than 20%\");\n        exitPenaltyPerc = newPenaltyPerc;\n    }\n\n    function updateFee(address newFeeAddress, uint256 newWithdrawFee) external onlyOwner {\n        feeAddress = newFeeAddress;\n        withdrawFee = newWithdrawFee;\n    }\n\n    function reset() external onlyOwner {\n        uint256 balance = rewardToken.balanceOf(address(this));\n        rewardToken.safeTransfer(address(msg.sender), balance);\n        totalStaked = 0;\n    }\n}",
  "sourcePath": "/Users/yosgi/freelancer/DeFiForge/contracts/contracts/Saving.sol",
  "compiler": {
    "name": "solc",
    "version": "0.8.20+commit.a1b79de6.Emscripten.clang"
  },
  "schemaVersion": "3.4.16",
  "updatedAt": "2024-12-07T09:40:37.043Z",
  "devdoc": {
    "errors": {
      "OwnableInvalidOwner(address)": [
        {
          "details": "The owner is not a valid owner account. (eg. `address(0)`)"
        }
      ],
      "OwnableUnauthorizedAccount(address)": [
        {
          "details": "The caller account is not authorized to perform an operation."
        }
      ],
      "ReentrancyGuardReentrantCall()": [
        {
          "details": "Unauthorized reentrant call."
        }
      ],
      "SafeERC20FailedOperation(address)": [
        {
          "details": "An operation with an ERC-20 token failed."
        }
      ]
    },
    "kind": "dev",
    "methods": {
      "owner()": {
        "details": "Returns the address of the current owner."
      },
      "renounceOwnership()": {
        "details": "Leaves the contract without owner. It will not be possible to call `onlyOwner` functions. Can only be called by the current owner. NOTE: Renouncing ownership will leave the contract without an owner, thereby disabling any functionality that is only available to the owner."
      },
      "transferOwnership(address)": {
        "details": "Transfers ownership of the contract to a new account (`newOwner`). Can only be called by the current owner."
      }
    },
    "version": 1
  },
  "userdoc": {
    "kind": "user",
    "methods": {},
    "version": 1
  }
}