{
  "contractName": "Staking",
  "abi": [
    {
      "inputs": [
        {
          "internalType": "address",
          "name": "_rewardToken",
          "type": "address"
        },
        {
          "internalType": "address",
          "name": "_feeAddress",
          "type": "address"
        }
      ],
      "stateMutability": "nonpayable",
      "type": "constructor"
    },
    {
      "inputs": [
        {
          "internalType": "address",
          "name": "owner",
          "type": "address"
        }
      ],
      "name": "OwnableInvalidOwner",
      "type": "error"
    },
    {
      "inputs": [
        {
          "internalType": "address",
          "name": "account",
          "type": "address"
        }
      ],
      "name": "OwnableUnauthorizedAccount",
      "type": "error"
    },
    {
      "inputs": [],
      "name": "ReentrancyGuardReentrantCall",
      "type": "error"
    },
    {
      "inputs": [
        {
          "internalType": "address",
          "name": "token",
          "type": "address"
        }
      ],
      "name": "SafeERC20FailedOperation",
      "type": "error"
    },
    {
      "anonymous": false,
      "inputs": [
        {
          "indexed": true,
          "internalType": "address",
          "name": "user",
          "type": "address"
        },
        {
          "indexed": false,
          "internalType": "uint256",
          "name": "amount",
          "type": "uint256"
        }
      ],
      "name": "Deposit",
      "type": "event"
    },
    {
      "anonymous": false,
      "inputs": [
        {
          "indexed": true,
          "internalType": "address",
          "name": "user",
          "type": "address"
        },
        {
          "indexed": false,
          "internalType": "uint256",
          "name": "amount",
          "type": "uint256"
        }
      ],
      "name": "EmergencyWithdraw",
      "type": "event"
    },
    {
      "anonymous": false,
      "inputs": [
        {
          "indexed": true,
          "internalType": "address",
          "name": "previousOwner",
          "type": "address"
        },
        {
          "indexed": true,
          "internalType": "address",
          "name": "newOwner",
          "type": "address"
        }
      ],
      "name": "OwnershipTransferred",
      "type": "event"
    },
    {
      "anonymous": false,
      "inputs": [
        {
          "indexed": true,
          "internalType": "address",
          "name": "user",
          "type": "address"
        },
        {
          "indexed": false,
          "internalType": "uint256",
          "name": "amount",
          "type": "uint256"
        }
      ],
      "name": "Withdraw",
      "type": "event"
    },
    {
      "inputs": [],
      "name": "apy1",
      "outputs": [
        {
          "internalType": "uint256",
          "name": "",
          "type": "uint256"
        }
      ],
      "stateMutability": "view",
      "type": "function",
      "constant": true
    },
    {
      "inputs": [],
      "name": "apy2",
      "outputs": [
        {
          "internalType": "uint256",
          "name": "",
          "type": "uint256"
        }
      ],
      "stateMutability": "view",
      "type": "function",
      "constant": true
    },
    {
      "inputs": [],
      "name": "apy3",
      "outputs": [
        {
          "internalType": "uint256",
          "name": "",
          "type": "uint256"
        }
      ],
      "stateMutability": "view",
      "type": "function",
      "constant": true
    },
    {
      "inputs": [],
      "name": "exitPenaltyPerc",
      "outputs": [
        {
          "internalType": "uint256",
          "name": "",
          "type": "uint256"
        }
      ],
      "stateMutability": "view",
      "type": "function",
      "constant": true
    },
    {
      "inputs": [],
      "name": "feeAddress",
      "outputs": [
        {
          "internalType": "address",
          "name": "",
          "type": "address"
        }
      ],
      "stateMutability": "view",
      "type": "function",
      "constant": true
    },
    {
      "inputs": [],
      "name": "owner",
      "outputs": [
        {
          "internalType": "address",
          "name": "",
          "type": "address"
        }
      ],
      "stateMutability": "view",
      "type": "function",
      "constant": true
    },
    {
      "inputs": [],
      "name": "renounceOwnership",
      "outputs": [],
      "stateMutability": "nonpayable",
      "type": "function"
    },
    {
      "inputs": [],
      "name": "rewardToken",
      "outputs": [
        {
          "internalType": "contract IERC20",
          "name": "",
          "type": "address"
        }
      ],
      "stateMutability": "view",
      "type": "function",
      "constant": true
    },
    {
      "inputs": [
        {
          "internalType": "uint256",
          "name": "",
          "type": "uint256"
        }
      ],
      "name": "stakers",
      "outputs": [
        {
          "internalType": "address",
          "name": "",
          "type": "address"
        }
      ],
      "stateMutability": "view",
      "type": "function",
      "constant": true
    },
    {
      "inputs": [],
      "name": "startedTimestamp",
      "outputs": [
        {
          "internalType": "uint256",
          "name": "",
          "type": "uint256"
        }
      ],
      "stateMutability": "view",
      "type": "function",
      "constant": true
    },
    {
      "inputs": [],
      "name": "totalStaked",
      "outputs": [
        {
          "internalType": "uint256",
          "name": "",
          "type": "uint256"
        }
      ],
      "stateMutability": "view",
      "type": "function",
      "constant": true
    },
    {
      "inputs": [
        {
          "internalType": "address",
          "name": "newOwner",
          "type": "address"
        }
      ],
      "name": "transferOwnership",
      "outputs": [],
      "stateMutability": "nonpayable",
      "type": "function"
    },
    {
      "inputs": [],
      "name": "withdrawFee",
      "outputs": [
        {
          "internalType": "uint256",
          "name": "",
          "type": "uint256"
        }
      ],
      "stateMutability": "view",
      "type": "function",
      "constant": true
    },
    {
      "inputs": [],
      "name": "startReward",
      "outputs": [],
      "stateMutability": "nonpayable",
      "type": "function"
    },
    {
      "inputs": [],
      "name": "stopReward",
      "outputs": [],
      "stateMutability": "nonpayable",
      "type": "function"
    },
    {
      "inputs": [
        {
          "internalType": "address",
          "name": "_user",
          "type": "address"
        }
      ],
      "name": "getStakedTokens",
      "outputs": [
        {
          "internalType": "uint256",
          "name": "",
          "type": "uint256"
        }
      ],
      "stateMutability": "view",
      "type": "function",
      "constant": true
    },
    {
      "inputs": [
        {
          "internalType": "address",
          "name": "_user",
          "type": "address"
        }
      ],
      "name": "getStakedItemLength",
      "outputs": [
        {
          "internalType": "uint256",
          "name": "",
          "type": "uint256"
        }
      ],
      "stateMutability": "view",
      "type": "function",
      "constant": true
    },
    {
      "inputs": [
        {
          "internalType": "address",
          "name": "_user",
          "type": "address"
        },
        {
          "internalType": "uint256",
          "name": "_index",
          "type": "uint256"
        }
      ],
      "name": "getStakedItemAPY",
      "outputs": [
        {
          "internalType": "uint256",
          "name": "",
          "type": "uint256"
        }
      ],
      "stateMutability": "view",
      "type": "function",
      "constant": true
    },
    {
      "inputs": [
        {
          "internalType": "address",
          "name": "_user",
          "type": "address"
        },
        {
          "internalType": "uint256",
          "name": "_index",
          "type": "uint256"
        }
      ],
      "name": "getStakedItemDuration",
      "outputs": [
        {
          "internalType": "uint256",
          "name": "",
          "type": "uint256"
        }
      ],
      "stateMutability": "view",
      "type": "function",
      "constant": true
    },
    {
      "inputs": [
        {
          "internalType": "address",
          "name": "_user",
          "type": "address"
        },
        {
          "internalType": "uint256",
          "name": "_index",
          "type": "uint256"
        }
      ],
      "name": "getStakedItemAmount",
      "outputs": [
        {
          "internalType": "uint256",
          "name": "",
          "type": "uint256"
        }
      ],
      "stateMutability": "view",
      "type": "function",
      "constant": true
    },
    {
      "inputs": [
        {
          "internalType": "address",
          "name": "_user",
          "type": "address"
        },
        {
          "internalType": "uint256",
          "name": "_index",
          "type": "uint256"
        }
      ],
      "name": "getStakedItemReward",
      "outputs": [
        {
          "internalType": "uint256",
          "name": "",
          "type": "uint256"
        }
      ],
      "stateMutability": "view",
      "type": "function",
      "constant": true
    },
    {
      "inputs": [
        {
          "internalType": "address",
          "name": "_user",
          "type": "address"
        },
        {
          "internalType": "uint256",
          "name": "_index",
          "type": "uint256"
        }
      ],
      "name": "getStakedItemTimestamp",
      "outputs": [
        {
          "internalType": "uint256",
          "name": "",
          "type": "uint256"
        }
      ],
      "stateMutability": "view",
      "type": "function",
      "constant": true
    },
    {
      "inputs": [
        {
          "internalType": "address",
          "name": "_user",
          "type": "address"
        },
        {
          "internalType": "uint256",
          "name": "_index",
          "type": "uint256"
        }
      ],
      "name": "getStakedItemElapsed",
      "outputs": [
        {
          "internalType": "uint256",
          "name": "",
          "type": "uint256"
        }
      ],
      "stateMutability": "view",
      "type": "function",
      "constant": true
    },
    {
      "inputs": [
        {
          "internalType": "uint256",
          "name": "_option",
          "type": "uint256"
        }
      ],
      "name": "deposit",
      "outputs": [],
      "stateMutability": "payable",
      "type": "function",
      "payable": true
    },
    {
      "inputs": [
        {
          "internalType": "uint256",
          "name": "_index",
          "type": "uint256"
        }
      ],
      "name": "withdraw",
      "outputs": [],
      "stateMutability": "nonpayable",
      "type": "function"
    },
    {
      "inputs": [
        {
          "internalType": "uint256",
          "name": "_amount",
          "type": "uint256"
        }
      ],
      "name": "withdrawEmergencyReward",
      "outputs": [],
      "stateMutability": "nonpayable",
      "type": "function"
    },
    {
      "inputs": [],
      "name": "rewardsRemaining",
      "outputs": [
        {
          "internalType": "uint256",
          "name": "",
          "type": "uint256"
        }
      ],
      "stateMutability": "view",
      "type": "function",
      "constant": true
    },
    {
      "inputs": [
        {
          "internalType": "uint256",
          "name": "newApy1",
          "type": "uint256"
        },
        {
          "internalType": "uint256",
          "name": "newApy2",
          "type": "uint256"
        },
        {
          "internalType": "uint256",
          "name": "newApy3",
          "type": "uint256"
        }
      ],
      "name": "updateApy",
      "outputs": [],
      "stateMutability": "nonpayable",
      "type": "function"
    },
    {
      "inputs": [
        {
          "internalType": "uint256",
          "name": "newPenaltyPerc",
          "type": "uint256"
        }
      ],
      "name": "updateExitPenalty",
      "outputs": [],
      "stateMutability": "nonpayable",
      "type": "function"
    },
    {
      "inputs": [
        {
          "internalType": "address",
          "name": "newFeeAddress",
          "type": "address"
        },
        {
          "internalType": "uint256",
          "name": "newWithdrawFee",
          "type": "uint256"
        }
      ],
      "name": "updateFee",
      "outputs": [],
      "stateMutability": "nonpayable",
      "type": "function"
    },
    {
      "inputs": [],
      "name": "reset",
      "outputs": [],
      "stateMutability": "nonpayable",
      "type": "function"
    },
    {
      "inputs": [],
      "name": "getStakers",
      "outputs": [
        {
          "internalType": "address[]",
          "name": "",
          "type": "address[]"
        }
      ],
      "stateMutability": "view",
      "type": "function",
      "constant": true
    }
  ],
  "bytecode": "0x60a06040523480156200001157600080fd5b50604051620019a9380380620019a9833981016040819052620000349162000125565b33806200005b57604051631e4fbdf760e01b81526000600482015260240160405180910390fd5b6200006681620000b8565b50600180556001600160a01b03918216608052600380546001600160a01b03191691909216179055600a6005908155600f600655601b600755600855600260098190556000908190556004556200015d565b600080546001600160a01b038381166001600160a01b0319831681178455604051919092169283917f8be0079c531659141344cd1fd0a4f28419497f9722a3daafe3b4186f6b6457e09190a35050565b80516001600160a01b03811681146200012057600080fd5b919050565b600080604083850312156200013957600080fd5b620001448362000108565b9150620001546020840162000108565b90509250929050565b608051611806620001a36000396000818161058c015281816105fa015281816106d00152818161096601528181610c9c0152818161113f01526111c101526118066000f3fe6080604052600436106101e35760003560e01c8063817b1cd211610102578063c8aa47b611610095578063ef91673911610064578063ef91673914610544578063f2fde38b1461055a578063f7c618c11461057a578063fd5e6dd1146105ae57600080fd5b8063c8aa47b6146104d9578063d826f88f146104f9578063da6cfb591461050e578063e941fa781461052e57600080fd5b806394be7197116100d157806394be719714610470578063a28dc95a14610490578063b6b55f25146104b0578063c86263ea146104c357600080fd5b8063817b1cd2146103fc5780638da5cb5b146104125780638e0b019814610430578063945925c31461045057600080fd5b806367bd01f81161017a57806378c196f31161014957806378c196f3146103835780637b280def146103985780637eb72d95146103ae57806380dc0672146103e757600080fd5b806367bd01f814610319578063715018a61461033957806371e1de001461034e578063746c8ae11461036e57600080fd5b806343352d61116101b657806343352d6114610295578063599a84cd146102b757806361959a1b146102cd57806363c28db1146102e357600080fd5b80631c8d74a0146101e8578063270f47971461020a5780632e1a7d4d1461023d578063412753581461025d575b600080fd5b3480156101f457600080fd5b506102086102033660046115de565b6105ce565b005b34801561021657600080fd5b5061022a610225366004611613565b6106fa565b6040519081526020015b60405180910390f35b34801561024957600080fd5b506102086102583660046115de565b610766565b34801561026957600080fd5b5060035461027d906001600160a01b031681565b6040516001600160a01b039091168152602001610234565b3480156102a157600080fd5b506102aa610ab7565b604051610234919061163d565b3480156102c357600080fd5b5061022a60075481565b3480156102d957600080fd5b5061022a60025481565b3480156102ef57600080fd5b5061022a6102fe36600461168a565b6001600160a01b03166000908152600a602052604090205490565b34801561032557600080fd5b5061022a610334366004611613565b610b19565b34801561034557600080fd5b50610208610b84565b34801561035a57600080fd5b506102086103693660046116a5565b610b98565b34801561037a57600080fd5b50610208610c1c565b34801561038f57600080fd5b5061022a610c7a565b3480156103a457600080fd5b5061022a60085481565b3480156103ba57600080fd5b5061022a6103c936600461168a565b6001600160a01b03166000908152600a602052604090206001015490565b3480156103f357600080fd5b50610208610d28565b34801561040857600080fd5b5061022a60045481565b34801561041e57600080fd5b506000546001600160a01b031661027d565b34801561043c57600080fd5b5061020861044b3660046115de565b610d46565b34801561045c57600080fd5b5061022a61046b366004611613565b610da4565b34801561047c57600080fd5b5061020861048b366004611613565b610db7565b34801561049c57600080fd5b5061022a6104ab366004611613565b610de5565b6102086104be3660046115de565b610e8a565b3480156104cf57600080fd5b5061022a60065481565b3480156104e557600080fd5b5061022a6104f4366004611613565b611097565b34801561050557600080fd5b5061020861111f565b34801561051a57600080fd5b5061022a610529366004611613565b6111f0565b34801561053a57600080fd5b5061022a60095481565b34801561055057600080fd5b5061022a60055481565b34801561056657600080fd5b5061020861057536600461168a565b61125b565b34801561058657600080fd5b5061027d7f000000000000000000000000000000000000000000000000000000000000000081565b3480156105ba57600080fd5b5061027d6105c93660046115de565b611296565b6105d66112c0565b600480546040516370a0823160e01b81523092810192909252906001600160a01b037f000000000000000000000000000000000000000000000000000000000000000016906370a0823190602401602060405180830381865afa158015610641573d6000803e3d6000fd5b505050506040513d601f19601f8201168201806040525081019061066591906116d1565b61066f9190611700565b8111156106c35760405162461bcd60e51b815260206004820152601d60248201527f4e6f7420656e6f75676820746f6b656e7320746f2074616b65206f757400000060448201526064015b60405180910390fd5b6106f76001600160a01b037f00000000000000000000000000000000000000000000000000000000000000001633836112ed565b50565b6001600160a01b0382166000908152600a60205260408120600181015483106107355760405162461bcd60e51b81526004016106ba90611713565b80600101838154811061074a5761074a61173f565b9060005260206000209060040201600201549150505b92915050565b61076e611344565b6000600254116107b25760405162461bcd60e51b815260206004820152600f60248201526e139bdd081cdd185c9d1959081e595d608a1b60448201526064016106ba565b336000908152600a60205260409020600181015482106107e45760405162461bcd60e51b81526004016106ba90611713565b60008160010183815481106107fb576107fb61173f565b9060005260206000209060040201600201549050808260000160008282546108239190611700565b92505081905550806004600082825461083c9190611700565b92505081905550600082600101848154811061085a5761085a61173f565b906000526020600020906004020160030154426108779190611700565b905082600101848154811061088e5761088e61173f565b9060005260206000209060040201600101548111156108d1578260010184815481106108bc576108bc61173f565b90600052602060002090600402016001015490505b60006301e1338060648560010187815481106108ef576108ef61173f565b600091825260209091206004909102015461090a8587611755565b6109149190611755565b61091e919061176c565b610928919061176c565b604051909150339084156108fc029085906000818181858888f19350505050158015610958573d6000803e3d6000fd5b5061098d6001600160a01b037f00000000000000000000000000000000000000000000000000000000000000001633836112ed565b845b60018581015461099f9190611700565b811015610a2e57846001018160016109b7919061178e565b815481106109c7576109c761173f565b90600052602060002090600402018560010182815481106109ea576109ea61173f565b600091825260209091208254600490920201908155600180830154908201556002808301549082015560039182015491015580610a26816117a1565b91505061098f565b5083600101805480610a4257610a426117ba565b600082815260208120600460001990930192830201818155600181018290556002810182905560030155905560405133907f884edad9ce6fa2440d8a54cc123490eb96d2768479d49ff9c7366125a942436490610aa29086815260200190565b60405180910390a2505050506106f760018055565b6060600b805480602002602001604051908101604052809291908181526020018280548015610b0f57602002820191906000526020600020905b81546001600160a01b03168152600190910190602001808311610af1575b5050505050905090565b6001600160a01b0382166000908152600a6020526040812060018101548310610b545760405162461bcd60e51b81526004016106ba90611713565b806001018381548110610b6957610b6961173f565b90600052602060002090600402016001015491505092915050565b610b8c6112c0565b610b96600061136e565b565b610ba06112c0565b6127108311158015610bb457506127108211155b8015610bc257506127108111155b610c0e5760405162461bcd60e51b815260206004820152601860248201527f415059206d7573742062652062656c6f7720313030303025000000000000000060448201526064016106ba565b600592909255600655600755565b610c246112c0565b60025415610c745760405162461bcd60e51b815260206004820152601b60248201527f43616e206f6e6c792073746172742072657761726473206f6e6365000000000060448201526064016106ba565b42600255565b6040516370a0823160e01b815230600482015260009081906001600160a01b037f000000000000000000000000000000000000000000000000000000000000000016906370a0823190602401602060405180830381865afa158015610ce3573d6000803e3d6000fd5b505050506040513d601f19601f82011682018060405250810190610d0791906116d1565b9050600454811115610d20576004546107609082611700565b506000919050565b610d306112c0565b6000600281905560058190556006819055600755565b610d4e6112c0565b6014811115610d9f5760405162461bcd60e51b815260206004820152601b60248201527f4d6179206e6f742073657420686967686572207468616e20323025000000000060448201526064016106ba565b600855565b6000610db083836113be565b9392505050565b610dbf6112c0565b600380546001600160a01b0319166001600160a01b039390931692909217909155600955565b6001600160a01b0382166000908152600a6020526040812060018101548310610e205760405162461bcd60e51b81526004016106ba90611713565b806001018381548110610e3557610e3561173f565b9060005260206000209060040201600301546002541115610e5a575050600254610760565b806001018381548110610e6f57610e6f61173f565b90600052602060002090600402016003015491505092915050565b610e92611344565b60003411610ed35760405162461bcd60e51b815260206004820152600e60248201526d125b9d985b1a5908105b5bdd5b9d60921b60448201526064016106ba565b8060011480610ee25750806002145b80610eed5750806003145b610f2a5760405162461bcd60e51b815260206004820152600e60248201526d24b73b30b634b21027b83a34b7b760911b60448201526064016106ba565b336000908152600a602052604081206001810154909103610f8857600b80546001810182556000919091527f0175b7a638427703f0dbe7bb9bbf987a2551717b34e79f33b5b1008d1fa01db90180546001600160a01b031916331790555b34816000016000828254610f9c919061178e565b925050819055503460046000828254610fb5919061178e565b9250508190555060008083600103610fd557505060055462278d00610ff5565b83600203610feb575050600654624f1a00610ff5565b5050600754629e34005b6040805160808101825283815260208082018481523483850181815242606086019081526001808b01805480830182556000918252969020965160049096029096019485559251948401949094559251600283015551600390910155905133917fe1fffcc4923d04b559f4d29a8bfc6cda04eb5b0d3c460751c2402c5c5cc9109c9161108391815260200190565b60405180910390a25050506106f760018055565b6001600160a01b0382166000908152600a60205260408120600181015483106110d25760405162461bcd60e51b81526004016106ba90611713565b60008160010184815481106110e9576110e961173f565b906000526020600020906004020160030154905080600254111561110c57506002545b6111168142611700565b95945050505050565b6111276112c0565b6040516370a0823160e01b81523060048201526000907f00000000000000000000000000000000000000000000000000000000000000006001600160a01b0316906370a0823190602401602060405180830381865afa15801561118e573d6000803e3d6000fd5b505050506040513d601f19601f820116820180604052508101906111b291906116d1565b90506111e86001600160a01b037f00000000000000000000000000000000000000000000000000000000000000001633836112ed565b506000600455565b6001600160a01b0382166000908152600a602052604081206001810154831061122b5760405162461bcd60e51b81526004016106ba90611713565b8060010183815481106112405761124061173f565b90600052602060002090600402016000015491505092915050565b6112636112c0565b6001600160a01b03811661128d57604051631e4fbdf760e01b8152600060048201526024016106ba565b6106f78161136e565b600b81815481106112a657600080fd5b6000918252602090912001546001600160a01b0316905081565b6000546001600160a01b03163314610b965760405163118cdaa760e01b81523360048201526024016106ba565b604080516001600160a01b038416602482015260448082018490528251808303909101815260649091019091526020810180516001600160e01b031663a9059cbb60e01b17905261133f908490611567565b505050565b60026001540361136757604051633ee5aeb560e01b815260040160405180910390fd5b6002600155565b600080546001600160a01b038381166001600160a01b0319831681178455604051919092169283917f8be0079c531659141344cd1fd0a4f28419497f9722a3daafe3b4186f6b6457e09190a35050565b6001600160a01b0382166000908152600a60205260408120600181015483106113f95760405162461bcd60e51b81526004016106ba90611713565b600254158061140757508054155b15611416576000915050610760565b600081600101848154811061142d5761142d61173f565b906000526020600020906004020160030154600254111561145c576002546114559042611700565b9050611491565b8160010184815481106114715761147161173f565b9060005260206000209060040201600301544261148e9190611700565b90505b8160010184815481106114a6576114a661173f565b9060005260206000209060040201600101548111156114e9578160010184815481106114d4576114d461173f565b90600052602060002090600402016001015490505b6301e1338060648360010186815481106115055761150561173f565b9060005260206000209060040201600001548385600101888154811061152d5761152d61173f565b9060005260206000209060040201600201546115499190611755565b6115539190611755565b61155d919061176c565b611116919061176c565b600080602060008451602086016000885af18061158a576040513d6000823e3d81fd5b50506000513d915081156115a25780600114156115af565b6001600160a01b0384163b155b156115d857604051635274afe760e01b81526001600160a01b03851660048201526024016106ba565b50505050565b6000602082840312156115f057600080fd5b5035919050565b80356001600160a01b038116811461160e57600080fd5b919050565b6000806040838503121561162657600080fd5b61162f836115f7565b946020939093013593505050565b6020808252825182820181905260009190848201906040850190845b8181101561167e5783516001600160a01b031683529284019291840191600101611659565b50909695505050505050565b60006020828403121561169c57600080fd5b610db0826115f7565b6000806000606084860312156116ba57600080fd5b505081359360208301359350604090920135919050565b6000602082840312156116e357600080fd5b5051919050565b634e487b7160e01b600052601160045260246000fd5b81810381811115610760576107606116ea565b602080825260129082015271125b99195e081bdd5d081bd988189bdd5b9960721b604082015260600190565b634e487b7160e01b600052603260045260246000fd5b8082028115828204841417610760576107606116ea565b60008261178957634e487b7160e01b600052601260045260246000fd5b500490565b80820180821115610760576107606116ea565b6000600182016117b3576117b36116ea565b5060010190565b634e487b7160e01b600052603160045260246000fdfea264697066735822122049b474491d87e865cfc32d0b947f0646941785d9354700d38e85ffac5bae109764736f6c63430008140033",
  "immutableReferences": {
    "1153": [
      {
        "length": 32,
        "start": 1420
      },
      {
        "length": 32,
        "start": 1530
      },
      {
        "length": 32,
        "start": 1744
      },
      {
        "length": 32,
        "start": 2406
      },
      {
        "length": 32,
        "start": 3228
      },
      {
        "length": 32,
        "start": 4415
      },
      {
        "length": 32,
        "start": 4545
      }
    ]
  },
  "source": "// SPDX-License-Identifier: UNLICENSED\npragma solidity ^0.8.20;\n\nimport \"@openzeppelin/contracts/utils/Context.sol\";\nimport \"@openzeppelin/contracts/utils/Address.sol\";\nimport \"@openzeppelin/contracts/access/Ownable.sol\";\nimport \"@openzeppelin/contracts/token/ERC20/IERC20.sol\";\nimport \"@openzeppelin/contracts/token/ERC20/utils/SafeERC20.sol\";\nimport \"@openzeppelin/contracts/utils/ReentrancyGuard.sol\";\n\ncontract Staking is Ownable, ReentrancyGuard {\n    using SafeERC20 for IERC20;\n\n    // Deposit Item\n    struct DepositItem {\n        uint256 apy;\n        uint256 duration;\n        uint256 amount;\n        uint256 timestamp;\n    }\n\n    // Info of each user.\n    struct UserInfo {\n        uint256 amount; // Total amount staked by user\n        DepositItem[] depositItems; // List of individual deposits\n    }\n\n    IERC20 public immutable rewardToken;\n\n    uint256 public startedTimestamp;\n    address public feeAddress;\n    uint256 public totalStaked;\n    uint256 public apy1;\n    uint256 public apy2;\n    uint256 public apy3;\n    uint256 public exitPenaltyPerc;\n    uint256 public withdrawFee;\n\n    mapping(address => UserInfo) private userInfo;\n    address[] public stakers; // Array to record all staker addresses\n\n    event Deposit(address indexed user, uint256 amount);\n    event Withdraw(address indexed user, uint256 amount);\n    event EmergencyWithdraw(address indexed user, uint256 amount);\n\n    constructor(address _rewardToken, address _feeAddress) Ownable(msg.sender) {\n        rewardToken = IERC20(_rewardToken);\n        feeAddress = _feeAddress;\n\n        apy1 = 10;\n        apy2 = 15;\n        apy3 = 27;\n\n        exitPenaltyPerc = 5;\n        withdrawFee = 2;\n        startedTimestamp = 0;\n        totalStaked = 0;\n    }\n\n    function _calculateReward(\n        address _user,\n        uint256 _index\n    ) internal view returns (uint256) {\n        UserInfo storage user = userInfo[_user];\n        require(_index < user.depositItems.length, \"Index out of bound\");\n        if (startedTimestamp == 0 || user.amount == 0) return 0;\n\n        uint256 dt;\n        if (startedTimestamp > user.depositItems[_index].timestamp)\n            dt = block.timestamp - startedTimestamp;\n        else dt = block.timestamp - user.depositItems[_index].timestamp;\n\n        if (dt > user.depositItems[_index].duration)\n            dt = user.depositItems[_index].duration;\n\n        return\n            ((user.depositItems[_index].amount * dt) *\n                user.depositItems[_index].apy) /\n            100 /\n            365 days;\n    }\n\n    function startReward() external onlyOwner {\n        require(startedTimestamp == 0, \"Can only start rewards once\");\n        startedTimestamp = block.timestamp;\n    }\n\n    function stopReward() external onlyOwner {\n        startedTimestamp = 0;\n        apy1 = 0;\n        apy2 = 0;\n        apy3 = 0;\n    }\n\n    function getStakedTokens(address _user) external view returns (uint256) {\n        UserInfo storage user = userInfo[_user];\n        return user.amount;\n    }\n\n    function getStakedItemLength(\n        address _user\n    ) external view returns (uint256) {\n        UserInfo storage user = userInfo[_user];\n        return user.depositItems.length;\n    }\n\n    function getStakedItemAPY(\n        address _user,\n        uint256 _index\n    ) external view returns (uint256) {\n        UserInfo storage user = userInfo[_user];\n        require(_index < user.depositItems.length, \"Index out of bound\");\n        return user.depositItems[_index].apy;\n    }\n\n    function getStakedItemDuration(\n        address _user,\n        uint256 _index\n    ) external view returns (uint256) {\n        UserInfo storage user = userInfo[_user];\n        require(_index < user.depositItems.length, \"Index out of bound\");\n        return user.depositItems[_index].duration;\n    }\n\n    function getStakedItemAmount(\n        address _user,\n        uint256 _index\n    ) external view returns (uint256) {\n        UserInfo storage user = userInfo[_user];\n        require(_index < user.depositItems.length, \"Index out of bound\");\n        return user.depositItems[_index].amount;\n    }\n\n    function getStakedItemReward(\n        address _user,\n        uint256 _index\n    ) external view returns (uint256) {\n        return _calculateReward(_user, _index);\n    }\n\n    function getStakedItemTimestamp(\n        address _user,\n        uint256 _index\n    ) external view returns (uint256) {\n        UserInfo storage user = userInfo[_user];\n        require(_index < user.depositItems.length, \"Index out of bound\");\n        if (startedTimestamp > user.depositItems[_index].timestamp)\n            return startedTimestamp;\n        return user.depositItems[_index].timestamp;\n    }\n\n    function getStakedItemElapsed(\n        address _user,\n        uint256 _index\n    ) external view returns (uint256) {\n        UserInfo storage user = userInfo[_user];\n        require(_index < user.depositItems.length, \"Index out of bound\");\n\n        uint256 depositTimestamp = user.depositItems[_index].timestamp;\n        if (startedTimestamp > depositTimestamp)\n            depositTimestamp = startedTimestamp;\n\n        return block.timestamp - depositTimestamp;\n    }\n\n    // Deposit function to stake tokens.\n    // This function accepts ETH, calculates the deposit details, and adds the user's address to the stakers array if it's their first deposit.\n    function deposit(uint256 _option) public payable nonReentrant {\n        require(msg.value > 0, \"Invalid Amount\");\n        require(_option == 1 || _option == 2 || _option == 3, \"Invalid Option\");\n\n        UserInfo storage user = userInfo[msg.sender];\n        // If this is the first deposit for the user, add them to the stakers array.\n        if (user.depositItems.length == 0) {\n            stakers.push(msg.sender);\n        }\n        user.amount += msg.value;\n        totalStaked += msg.value;\n\n        uint256 apy;\n        uint256 duration;\n\n        if (_option == 1) {\n            apy = apy1;\n            duration = 30 days;\n        } else if (_option == 2) {\n            apy = apy2;\n            duration = 60 days;\n        } else {\n            apy = apy3;\n            duration = 120 days;\n        }\n\n        user.depositItems.push(\n            DepositItem({\n                apy: apy,\n                duration: duration,\n                amount: msg.value,\n                timestamp: block.timestamp\n            })\n        );\n\n        emit Deposit(msg.sender, msg.value);\n    }\n\n    // Withdraw function to allow users to withdraw staked tokens.\n    function withdraw(uint256 _index) public nonReentrant {\n        require(startedTimestamp > 0, \"Not started yet\");\n\n        UserInfo storage user = userInfo[msg.sender];\n        require(_index < user.depositItems.length, \"Index out of bound\");\n\n        uint256 amount = user.depositItems[_index].amount;\n        user.amount -= amount;\n        totalStaked -= amount;\n\n        uint256 dt = block.timestamp - user.depositItems[_index].timestamp;\n        if (dt > user.depositItems[_index].duration) {\n            dt = user.depositItems[_index].duration;\n        }\n\n        uint256 reward = (amount * dt * user.depositItems[_index].apy) /\n            100 /\n            365 days;\n\n        // Transfer ETH back to the user.\n        payable(msg.sender).transfer(amount);\n\n        // Transfer reward tokens to the user.\n        rewardToken.safeTransfer(msg.sender, reward);\n\n        // Remove the deposit item from the user's deposit list.\n        for (uint256 i = _index; i < user.depositItems.length - 1; i++) {\n            user.depositItems[i] = user.depositItems[i + 1];\n        }\n        user.depositItems.pop();\n\n        emit Withdraw(msg.sender, amount);\n    }\n\n    // Emergency withdraw function for rewards.\n    function withdrawEmergencyReward(uint256 _amount) external onlyOwner {\n        require(\n            _amount <= rewardToken.balanceOf(address(this)) - totalStaked,\n            \"Not enough tokens to take out\"\n        );\n        rewardToken.safeTransfer(address(msg.sender), _amount);\n    }\n\n    // Returns the remaining rewards available in the staking pool.\n    function rewardsRemaining() public view returns (uint256) {\n        uint256 reward = rewardToken.balanceOf(address(this));\n        if (reward > totalStaked) reward -= totalStaked;\n        else reward = 0;\n        return reward;\n    }\n\n    // Function to update APY values.\n    function updateApy(\n        uint256 newApy1,\n        uint256 newApy2,\n        uint256 newApy3\n    ) external onlyOwner {\n        require(\n            newApy1 <= 10000 && newApy2 <= 10000 && newApy3 <= 10000,\n            \"APY must be below 10000%\"\n        );\n        apy1 = newApy1;\n        apy2 = newApy2;\n        apy3 = newApy3;\n    }\n\n    // Function to update the exit penalty percentage.\n    function updateExitPenalty(uint256 newPenaltyPerc) external onlyOwner {\n        require(newPenaltyPerc <= 20, \"May not set higher than 20%\");\n        exitPenaltyPerc = newPenaltyPerc;\n    }\n\n    // Function to update the fee address and withdraw fee.\n    function updateFee(\n        address newFeeAddress,\n        uint256 newWithdrawFee\n    ) external onlyOwner {\n        feeAddress = newFeeAddress;\n        withdrawFee = newWithdrawFee;\n    }\n\n    // Function to reset the staking pool (for migration or emergency purposes).\n    function reset() external onlyOwner {\n        uint256 balance = rewardToken.balanceOf(address(this));\n        rewardToken.safeTransfer(address(msg.sender), balance);\n        totalStaked = 0;\n    }\n\n    // Public getter function to return all staker addresses.\n    // Note: This function may be gas expensive if there are many stakers.\n    function getStakers() external view returns (address[] memory) {\n        return stakers;\n    }\n}\n",
  "sourcePath": "/Users/yosgi/freelancer/DeFiForge/contracts/contracts/Staking.sol",
  "compiler": {
    "name": "solc",
    "version": "0.8.20+commit.a1b79de6.Emscripten.clang"
  },
  "schemaVersion": "3.4.16",
  "updatedAt": "2025-02-21T00:10:22.128Z",
  "networkType": "ethereum",
  "devdoc": {
    "errors": {
      "OwnableInvalidOwner(address)": [
        {
          "details": "The owner is not a valid owner account. (eg. `address(0)`)"
        }
      ],
      "OwnableUnauthorizedAccount(address)": [
        {
          "details": "The caller account is not authorized to perform an operation."
        }
      ],
      "ReentrancyGuardReentrantCall()": [
        {
          "details": "Unauthorized reentrant call."
        }
      ],
      "SafeERC20FailedOperation(address)": [
        {
          "details": "An operation with an ERC-20 token failed."
        }
      ]
    },
    "kind": "dev",
    "methods": {
      "owner()": {
        "details": "Returns the address of the current owner."
      },
      "renounceOwnership()": {
        "details": "Leaves the contract without owner. It will not be possible to call `onlyOwner` functions. Can only be called by the current owner. NOTE: Renouncing ownership will leave the contract without an owner, thereby disabling any functionality that is only available to the owner."
      },
      "transferOwnership(address)": {
        "details": "Transfers ownership of the contract to a new account (`newOwner`). Can only be called by the current owner."
      }
    },
    "version": 1
  },
  "userdoc": {
    "kind": "user",
    "methods": {},
    "version": 1
  }
}