{
  "contractName": "Staking",
  "abi": [
    {
      "inputs": [
        {
          "internalType": "address",
          "name": "_rewardToken",
          "type": "address"
        },
        {
          "internalType": "address",
          "name": "_feeAddress",
          "type": "address"
        }
      ],
      "stateMutability": "nonpayable",
      "type": "constructor"
    },
    {
      "inputs": [
        {
          "internalType": "address",
          "name": "owner",
          "type": "address"
        }
      ],
      "name": "OwnableInvalidOwner",
      "type": "error"
    },
    {
      "inputs": [
        {
          "internalType": "address",
          "name": "account",
          "type": "address"
        }
      ],
      "name": "OwnableUnauthorizedAccount",
      "type": "error"
    },
    {
      "inputs": [],
      "name": "ReentrancyGuardReentrantCall",
      "type": "error"
    },
    {
      "inputs": [
        {
          "internalType": "address",
          "name": "token",
          "type": "address"
        }
      ],
      "name": "SafeERC20FailedOperation",
      "type": "error"
    },
    {
      "anonymous": false,
      "inputs": [
        {
          "indexed": true,
          "internalType": "address",
          "name": "user",
          "type": "address"
        },
        {
          "indexed": false,
          "internalType": "uint256",
          "name": "amount",
          "type": "uint256"
        }
      ],
      "name": "Deposit",
      "type": "event"
    },
    {
      "anonymous": false,
      "inputs": [
        {
          "indexed": true,
          "internalType": "address",
          "name": "user",
          "type": "address"
        },
        {
          "indexed": false,
          "internalType": "uint256",
          "name": "amount",
          "type": "uint256"
        }
      ],
      "name": "EmergencyWithdraw",
      "type": "event"
    },
    {
      "anonymous": false,
      "inputs": [
        {
          "indexed": true,
          "internalType": "address",
          "name": "previousOwner",
          "type": "address"
        },
        {
          "indexed": true,
          "internalType": "address",
          "name": "newOwner",
          "type": "address"
        }
      ],
      "name": "OwnershipTransferred",
      "type": "event"
    },
    {
      "anonymous": false,
      "inputs": [
        {
          "indexed": true,
          "internalType": "address",
          "name": "user",
          "type": "address"
        },
        {
          "indexed": false,
          "internalType": "uint256",
          "name": "amount",
          "type": "uint256"
        }
      ],
      "name": "Withdraw",
      "type": "event"
    },
    {
      "inputs": [],
      "name": "apy1",
      "outputs": [
        {
          "internalType": "uint256",
          "name": "",
          "type": "uint256"
        }
      ],
      "stateMutability": "view",
      "type": "function"
    },
    {
      "inputs": [],
      "name": "apy2",
      "outputs": [
        {
          "internalType": "uint256",
          "name": "",
          "type": "uint256"
        }
      ],
      "stateMutability": "view",
      "type": "function"
    },
    {
      "inputs": [],
      "name": "apy3",
      "outputs": [
        {
          "internalType": "uint256",
          "name": "",
          "type": "uint256"
        }
      ],
      "stateMutability": "view",
      "type": "function"
    },
    {
      "inputs": [],
      "name": "exitPenaltyPerc",
      "outputs": [
        {
          "internalType": "uint256",
          "name": "",
          "type": "uint256"
        }
      ],
      "stateMutability": "view",
      "type": "function"
    },
    {
      "inputs": [],
      "name": "feeAddress",
      "outputs": [
        {
          "internalType": "address",
          "name": "",
          "type": "address"
        }
      ],
      "stateMutability": "view",
      "type": "function"
    },
    {
      "inputs": [],
      "name": "owner",
      "outputs": [
        {
          "internalType": "address",
          "name": "",
          "type": "address"
        }
      ],
      "stateMutability": "view",
      "type": "function"
    },
    {
      "inputs": [],
      "name": "renounceOwnership",
      "outputs": [],
      "stateMutability": "nonpayable",
      "type": "function"
    },
    {
      "inputs": [],
      "name": "rewardToken",
      "outputs": [
        {
          "internalType": "contract IERC20",
          "name": "",
          "type": "address"
        }
      ],
      "stateMutability": "view",
      "type": "function"
    },
    {
      "inputs": [],
      "name": "startedTimestamp",
      "outputs": [
        {
          "internalType": "uint256",
          "name": "",
          "type": "uint256"
        }
      ],
      "stateMutability": "view",
      "type": "function"
    },
    {
      "inputs": [],
      "name": "totalStaked",
      "outputs": [
        {
          "internalType": "uint256",
          "name": "",
          "type": "uint256"
        }
      ],
      "stateMutability": "view",
      "type": "function"
    },
    {
      "inputs": [
        {
          "internalType": "address",
          "name": "newOwner",
          "type": "address"
        }
      ],
      "name": "transferOwnership",
      "outputs": [],
      "stateMutability": "nonpayable",
      "type": "function"
    },
    {
      "inputs": [],
      "name": "withdrawFee",
      "outputs": [
        {
          "internalType": "uint256",
          "name": "",
          "type": "uint256"
        }
      ],
      "stateMutability": "view",
      "type": "function"
    },
    {
      "inputs": [],
      "name": "startReward",
      "outputs": [],
      "stateMutability": "nonpayable",
      "type": "function"
    },
    {
      "inputs": [],
      "name": "stopReward",
      "outputs": [],
      "stateMutability": "nonpayable",
      "type": "function"
    },
    {
      "inputs": [
        {
          "internalType": "address",
          "name": "_user",
          "type": "address"
        }
      ],
      "name": "getStakedTokens",
      "outputs": [
        {
          "internalType": "uint256",
          "name": "",
          "type": "uint256"
        }
      ],
      "stateMutability": "view",
      "type": "function"
    },
    {
      "inputs": [
        {
          "internalType": "address",
          "name": "_user",
          "type": "address"
        }
      ],
      "name": "getStakedItemLength",
      "outputs": [
        {
          "internalType": "uint256",
          "name": "",
          "type": "uint256"
        }
      ],
      "stateMutability": "view",
      "type": "function"
    },
    {
      "inputs": [
        {
          "internalType": "address",
          "name": "_user",
          "type": "address"
        },
        {
          "internalType": "uint256",
          "name": "_index",
          "type": "uint256"
        }
      ],
      "name": "getStakedItemAPY",
      "outputs": [
        {
          "internalType": "uint256",
          "name": "",
          "type": "uint256"
        }
      ],
      "stateMutability": "view",
      "type": "function"
    },
    {
      "inputs": [
        {
          "internalType": "address",
          "name": "_user",
          "type": "address"
        },
        {
          "internalType": "uint256",
          "name": "_index",
          "type": "uint256"
        }
      ],
      "name": "getStakedItemDuration",
      "outputs": [
        {
          "internalType": "uint256",
          "name": "",
          "type": "uint256"
        }
      ],
      "stateMutability": "view",
      "type": "function"
    },
    {
      "inputs": [
        {
          "internalType": "address",
          "name": "_user",
          "type": "address"
        },
        {
          "internalType": "uint256",
          "name": "_index",
          "type": "uint256"
        }
      ],
      "name": "getStakedItemAmount",
      "outputs": [
        {
          "internalType": "uint256",
          "name": "",
          "type": "uint256"
        }
      ],
      "stateMutability": "view",
      "type": "function"
    },
    {
      "inputs": [
        {
          "internalType": "address",
          "name": "_user",
          "type": "address"
        },
        {
          "internalType": "uint256",
          "name": "_index",
          "type": "uint256"
        }
      ],
      "name": "getStakedItemReward",
      "outputs": [
        {
          "internalType": "uint256",
          "name": "",
          "type": "uint256"
        }
      ],
      "stateMutability": "view",
      "type": "function"
    },
    {
      "inputs": [
        {
          "internalType": "address",
          "name": "_user",
          "type": "address"
        },
        {
          "internalType": "uint256",
          "name": "_index",
          "type": "uint256"
        }
      ],
      "name": "getStakedItemTimestamp",
      "outputs": [
        {
          "internalType": "uint256",
          "name": "",
          "type": "uint256"
        }
      ],
      "stateMutability": "view",
      "type": "function"
    },
    {
      "inputs": [
        {
          "internalType": "address",
          "name": "_user",
          "type": "address"
        },
        {
          "internalType": "uint256",
          "name": "_index",
          "type": "uint256"
        }
      ],
      "name": "getStakedItemElapsed",
      "outputs": [
        {
          "internalType": "uint256",
          "name": "",
          "type": "uint256"
        }
      ],
      "stateMutability": "view",
      "type": "function"
    },
    {
      "inputs": [
        {
          "internalType": "uint256",
          "name": "_option",
          "type": "uint256"
        }
      ],
      "name": "deposit",
      "outputs": [],
      "stateMutability": "payable",
      "type": "function"
    },
    {
      "inputs": [
        {
          "internalType": "uint256",
          "name": "_index",
          "type": "uint256"
        }
      ],
      "name": "withdraw",
      "outputs": [],
      "stateMutability": "nonpayable",
      "type": "function"
    },
    {
      "inputs": [
        {
          "internalType": "uint256",
          "name": "_amount",
          "type": "uint256"
        }
      ],
      "name": "withdrawEmergencyReward",
      "outputs": [],
      "stateMutability": "nonpayable",
      "type": "function"
    },
    {
      "inputs": [],
      "name": "rewardsRemaining",
      "outputs": [
        {
          "internalType": "uint256",
          "name": "",
          "type": "uint256"
        }
      ],
      "stateMutability": "view",
      "type": "function"
    },
    {
      "inputs": [
        {
          "internalType": "uint256",
          "name": "newApy1",
          "type": "uint256"
        },
        {
          "internalType": "uint256",
          "name": "newApy2",
          "type": "uint256"
        },
        {
          "internalType": "uint256",
          "name": "newApy3",
          "type": "uint256"
        }
      ],
      "name": "updateApy",
      "outputs": [],
      "stateMutability": "nonpayable",
      "type": "function"
    },
    {
      "inputs": [
        {
          "internalType": "uint256",
          "name": "newPenaltyPerc",
          "type": "uint256"
        }
      ],
      "name": "updateExitPenalty",
      "outputs": [],
      "stateMutability": "nonpayable",
      "type": "function"
    },
    {
      "inputs": [
        {
          "internalType": "address",
          "name": "newFeeAddress",
          "type": "address"
        },
        {
          "internalType": "uint256",
          "name": "newWithdrawFee",
          "type": "uint256"
        }
      ],
      "name": "updateFee",
      "outputs": [],
      "stateMutability": "nonpayable",
      "type": "function"
    },
    {
      "inputs": [],
      "name": "reset",
      "outputs": [],
      "stateMutability": "nonpayable",
      "type": "function"
    }
  ],
  "bytecode": "0x60a06040523480156200001157600080fd5b506040516200182938038062001829833981016040819052620000349162000125565b33806200005b57604051631e4fbdf760e01b81526000600482015260240160405180910390fd5b6200006681620000b8565b50600180556001600160a01b03918216608052600380546001600160a01b03191691909216179055600a6005908155600f600655601b600755600855600260098190556000908190556004556200015d565b600080546001600160a01b038381166001600160a01b0319831681178455604051919092169283917f8be0079c531659141344cd1fd0a4f28419497f9722a3daafe3b4186f6b6457e09190a35050565b80516001600160a01b03811681146200012057600080fd5b919050565b600080604083850312156200013957600080fd5b620001448362000108565b9150620001546020840162000108565b90509250929050565b608051611686620001a360003960008181610554015281816105a2015281816106780152818161090e01528181610be20152818161103601526110b801526116866000f3fe6080604052600436106101cd5760003560e01c8063817b1cd2116100f7578063c86263ea11610095578063e941fa7811610064578063e941fa78146104f6578063ef9167391461050c578063f2fde38b14610522578063f7c618c11461054257600080fd5b8063c86263ea1461048b578063c8aa47b6146104a1578063d826f88f146104c1578063da6cfb59146104d657600080fd5b8063945925c3116100d1578063945925c31461041857806394be719714610438578063a28dc95a14610458578063b6b55f251461047857600080fd5b8063817b1cd2146103c45780638da5cb5b146103da5780638e0b0198146103f857600080fd5b806367bd01f81161016f57806378c196f31161013e57806378c196f31461034b5780637b280def146103605780637eb72d951461037657806380dc0672146103af57600080fd5b806367bd01f8146102e1578063715018a61461030157806371e1de0014610316578063746c8ae11461033657600080fd5b806341275358116101ab5780634127535814610247578063599a84cd1461027f57806361959a1b1461029557806363c28db1146102ab57600080fd5b80631c8d74a0146101d2578063270f4797146101f45780632e1a7d4d14610227575b600080fd5b3480156101de57600080fd5b506101f26101ed3660046114ab565b610576565b005b34801561020057600080fd5b5061021461020f3660046114e0565b6106a2565b6040519081526020015b60405180910390f35b34801561023357600080fd5b506101f26102423660046114ab565b61070e565b34801561025357600080fd5b50600354610267906001600160a01b031681565b6040516001600160a01b03909116815260200161021e565b34801561028b57600080fd5b5061021460075481565b3480156102a157600080fd5b5061021460025481565b3480156102b757600080fd5b506102146102c636600461150a565b6001600160a01b03166000908152600a602052604090205490565b3480156102ed57600080fd5b506102146102fc3660046114e0565b610a5f565b34801561030d57600080fd5b506101f2610aca565b34801561032257600080fd5b506101f2610331366004611525565b610ade565b34801561034257600080fd5b506101f2610b62565b34801561035757600080fd5b50610214610bc0565b34801561036c57600080fd5b5061021460085481565b34801561038257600080fd5b5061021461039136600461150a565b6001600160a01b03166000908152600a602052604090206001015490565b3480156103bb57600080fd5b506101f2610c6e565b3480156103d057600080fd5b5061021460045481565b3480156103e657600080fd5b506000546001600160a01b0316610267565b34801561040457600080fd5b506101f26104133660046114ab565b610c8c565b34801561042457600080fd5b506102146104333660046114e0565b610cea565b34801561044457600080fd5b506101f26104533660046114e0565b610cfd565b34801561046457600080fd5b506102146104733660046114e0565b610d2b565b6101f26104863660046114ab565b610dd0565b34801561049757600080fd5b5061021460065481565b3480156104ad57600080fd5b506102146104bc3660046114e0565b610f8e565b3480156104cd57600080fd5b506101f2611016565b3480156104e257600080fd5b506102146104f13660046114e0565b6110e7565b34801561050257600080fd5b5061021460095481565b34801561051857600080fd5b5061021460055481565b34801561052e57600080fd5b506101f261053d36600461150a565b611152565b34801561054e57600080fd5b506102677f000000000000000000000000000000000000000000000000000000000000000081565b61057e61118d565b600480546040516370a0823160e01b81523092810192909252906001600160a01b037f000000000000000000000000000000000000000000000000000000000000000016906370a0823190602401602060405180830381865afa1580156105e9573d6000803e3d6000fd5b505050506040513d601f19601f8201168201806040525081019061060d9190611551565b6106179190611580565b81111561066b5760405162461bcd60e51b815260206004820152601d60248201527f6e6f7420656e6f75676820746f6b656e7320746f2074616b65206f757400000060448201526064015b60405180910390fd5b61069f6001600160a01b037f00000000000000000000000000000000000000000000000000000000000000001633836111ba565b50565b6001600160a01b0382166000908152600a60205260408120600181015483106106dd5760405162461bcd60e51b815260040161066290611593565b8060010183815481106106f2576106f26115bf565b9060005260206000209060040201600201549150505b92915050565b610716611211565b60006002541161075a5760405162461bcd60e51b815260206004820152600f60248201526e139bdd081cdd185c9d1959081e595d608a1b6044820152606401610662565b336000908152600a602052604090206001810154821061078c5760405162461bcd60e51b815260040161066290611593565b60008160010183815481106107a3576107a36115bf565b9060005260206000209060040201600201549050808260000160008282546107cb9190611580565b9250508190555080600460008282546107e49190611580565b925050819055506000826001018481548110610802576108026115bf565b9060005260206000209060040201600301544261081f9190611580565b9050826001018481548110610836576108366115bf565b90600052602060002090600402016001015481111561087957826001018481548110610864576108646115bf565b90600052602060002090600402016001015490505b60006301e133806064856001018781548110610897576108976115bf565b60009182526020909120600490910201546108b285876115d5565b6108bc91906115d5565b6108c691906115ec565b6108d091906115ec565b604051909150339084156108fc029085906000818181858888f19350505050158015610900573d6000803e3d6000fd5b506109356001600160a01b037f00000000000000000000000000000000000000000000000000000000000000001633836111ba565b845b6001858101546109479190611580565b8110156109d6578460010181600161095f919061160e565b8154811061096f5761096f6115bf565b9060005260206000209060040201856001018281548110610992576109926115bf565b6000918252602090912082546004909202019081556001808301549082015560028083015490820155600391820154910155806109ce81611621565b915050610937565b50836001018054806109ea576109ea61163a565b600082815260208120600460001990930192830201818155600181018290556002810182905560030155905560405133907f884edad9ce6fa2440d8a54cc123490eb96d2768479d49ff9c7366125a942436490610a4a9086815260200190565b60405180910390a25050505061069f60018055565b6001600160a01b0382166000908152600a6020526040812060018101548310610a9a5760405162461bcd60e51b815260040161066290611593565b806001018381548110610aaf57610aaf6115bf565b90600052602060002090600402016001015491505092915050565b610ad261118d565b610adc600061123b565b565b610ae661118d565b6127108311158015610afa57506127108211155b8015610b0857506127108111155b610b545760405162461bcd60e51b815260206004820152601860248201527f415059206d7573742062652062656c6f772031303030302500000000000000006044820152606401610662565b600592909255600655600755565b610b6a61118d565b60025415610bba5760405162461bcd60e51b815260206004820152601b60248201527f43616e206f6e6c792073746172742072657761726473206f6e636500000000006044820152606401610662565b42600255565b6040516370a0823160e01b815230600482015260009081906001600160a01b037f000000000000000000000000000000000000000000000000000000000000000016906370a0823190602401602060405180830381865afa158015610c29573d6000803e3d6000fd5b505050506040513d601f19601f82011682018060405250810190610c4d9190611551565b9050600454811115610c66576004546107089082611580565b506000919050565b610c7661118d565b6000600281905560058190556006819055600755565b610c9461118d565b6014811115610ce55760405162461bcd60e51b815260206004820152601b60248201527f4d6179206e6f742073657420686967686572207468616e2032302500000000006044820152606401610662565b600855565b6000610cf6838361128b565b9392505050565b610d0561118d565b600380546001600160a01b0319166001600160a01b039390931692909217909155600955565b6001600160a01b0382166000908152600a6020526040812060018101548310610d665760405162461bcd60e51b815260040161066290611593565b806001018381548110610d7b57610d7b6115bf565b9060005260206000209060040201600301546002541115610da0575050600254610708565b806001018381548110610db557610db56115bf565b90600052602060002090600402016003015491505092915050565b610dd8611211565b60003411610e195760405162461bcd60e51b815260206004820152600e60248201526d125b9d985b1a5908105b5bdd5b9d60921b6044820152606401610662565b8060011480610e285750806002145b80610e335750806003145b610e705760405162461bcd60e51b815260206004820152600e60248201526d24b73b30b634b21027b83a34b7b760911b6044820152606401610662565b336000908152600a60205260408120805490913491839190610e9390849061160e565b925050819055503460046000828254610eac919061160e565b9250508190555060008083600103610ecc57505060055462278d00610eec565b83600203610ee2575050600654624f1a00610eec565b5050600754629e34005b6040805160808101825283815260208082018481523483850181815242606086019081526001808b01805480830182556000918252969020965160049096029096019485559251948401949094559251600283015551600390910155905133917fe1fffcc4923d04b559f4d29a8bfc6cda04eb5b0d3c460751c2402c5c5cc9109c91610f7a91815260200190565b60405180910390a250505061069f60018055565b6001600160a01b0382166000908152600a6020526040812060018101548310610fc95760405162461bcd60e51b815260040161066290611593565b6000816001018481548110610fe057610fe06115bf565b906000526020600020906004020160030154905080600254111561100357506002545b61100d8142611580565b95945050505050565b61101e61118d565b6040516370a0823160e01b81523060048201526000907f00000000000000000000000000000000000000000000000000000000000000006001600160a01b0316906370a0823190602401602060405180830381865afa158015611085573d6000803e3d6000fd5b505050506040513d601f19601f820116820180604052508101906110a99190611551565b90506110df6001600160a01b037f00000000000000000000000000000000000000000000000000000000000000001633836111ba565b506000600455565b6001600160a01b0382166000908152600a60205260408120600181015483106111225760405162461bcd60e51b815260040161066290611593565b806001018381548110611137576111376115bf565b90600052602060002090600402016000015491505092915050565b61115a61118d565b6001600160a01b03811661118457604051631e4fbdf760e01b815260006004820152602401610662565b61069f8161123b565b6000546001600160a01b03163314610adc5760405163118cdaa760e01b8152336004820152602401610662565b604080516001600160a01b038416602482015260448082018490528251808303909101815260649091019091526020810180516001600160e01b031663a9059cbb60e01b17905261120c908490611434565b505050565b60026001540361123457604051633ee5aeb560e01b815260040160405180910390fd5b6002600155565b600080546001600160a01b038381166001600160a01b0319831681178455604051919092169283917f8be0079c531659141344cd1fd0a4f28419497f9722a3daafe3b4186f6b6457e09190a35050565b6001600160a01b0382166000908152600a60205260408120600181015483106112c65760405162461bcd60e51b815260040161066290611593565b60025415806112d457508054155b156112e3576000915050610708565b60008160010184815481106112fa576112fa6115bf565b9060005260206000209060040201600301546002541115611329576002546113229042611580565b905061135e565b81600101848154811061133e5761133e6115bf565b9060005260206000209060040201600301544261135b9190611580565b90505b816001018481548110611373576113736115bf565b9060005260206000209060040201600101548111156113b6578160010184815481106113a1576113a16115bf565b90600052602060002090600402016001015490505b6301e1338060648360010186815481106113d2576113d26115bf565b906000526020600020906004020160000154838560010188815481106113fa576113fa6115bf565b90600052602060002090600402016002015461141691906115d5565b61142091906115d5565b61142a91906115ec565b61100d91906115ec565b600080602060008451602086016000885af180611457576040513d6000823e3d81fd5b50506000513d9150811561146f57806001141561147c565b6001600160a01b0384163b155b156114a557604051635274afe760e01b81526001600160a01b0385166004820152602401610662565b50505050565b6000602082840312156114bd57600080fd5b5035919050565b80356001600160a01b03811681146114db57600080fd5b919050565b600080604083850312156114f357600080fd5b6114fc836114c4565b946020939093013593505050565b60006020828403121561151c57600080fd5b610cf6826114c4565b60008060006060848603121561153a57600080fd5b505081359360208301359350604090920135919050565b60006020828403121561156357600080fd5b5051919050565b634e487b7160e01b600052601160045260246000fd5b818103818111156107085761070861156a565b602080825260129082015271125b99195e081bdd5d081bd988189bdd5b9960721b604082015260600190565b634e487b7160e01b600052603260045260246000fd5b80820281158282048414176107085761070861156a565b60008261160957634e487b7160e01b600052601260045260246000fd5b500490565b808201808211156107085761070861156a565b6000600182016116335761163361156a565b5060010190565b634e487b7160e01b600052603160045260246000fdfea26469706673582212209824772a99ce24b7f71cb9ac3460236d0df02dd399c668940a7f2e22dd7da55a64736f6c63430008140033",
  "immutableReferences": {
    "3429": [
      {
        "length": 32,
        "start": 1364
      },
      {
        "length": 32,
        "start": 1442
      },
      {
        "length": 32,
        "start": 1656
      },
      {
        "length": 32,
        "start": 2318
      },
      {
        "length": 32,
        "start": 3042
      },
      {
        "length": 32,
        "start": 4150
      },
      {
        "length": 32,
        "start": 4280
      }
    ]
  },
  "source": "//SPDX-License-Identifier: UNLICENSED\n\npragma solidity ^0.8.20;\n\nimport \"@openzeppelin/contracts/utils/Context.sol\";\nimport \"@openzeppelin/contracts/utils/Address.sol\";\nimport \"@openzeppelin/contracts/access/Ownable.sol\";\nimport \"@openzeppelin/contracts/token/ERC20/IERC20.sol\";\nimport \"@openzeppelin/contracts/token/ERC20/utils/SafeERC20.sol\";\nimport \"@openzeppelin/contracts/utils/ReentrancyGuard.sol\";\n\ncontract Staking is Ownable, ReentrancyGuard {\n    using SafeERC20 for IERC20;\n\n    // Deposit Item\n    struct DepositItem {\n        uint256 apy;\n        uint256 duration;\n        uint256 amount;\n        uint256 timestamp;\n    }\n\n    // Info of each user.\n    struct UserInfo {\n        uint256 amount; // Total amount\n        DepositItem[] depositItems; // Deposited list\n    }\n\n    IERC20 public immutable rewardToken;\n\n    uint256 public startedTimestamp;\n    address public feeAddress;\n    uint256 public totalStaked;\n    uint256 public apy1;\n    uint256 public apy2;\n    uint256 public apy3;\n    uint256 public exitPenaltyPerc;\n    uint256 public withdrawFee;\n\n    mapping(address => UserInfo) private userInfo;\n\n    event Deposit(address indexed user, uint256 amount);\n    event Withdraw(address indexed user, uint256 amount);\n    event EmergencyWithdraw(address indexed user, uint256 amount);\n\n    constructor(address _rewardToken, address _feeAddress) Ownable(msg.sender) {\n        rewardToken = IERC20(_rewardToken);\n        feeAddress = _feeAddress;\n\n        apy1 = 10;\n        apy2 = 15;\n        apy3 = 27;\n\n        exitPenaltyPerc = 5;\n        withdrawFee = 2;\n        startedTimestamp = 0;\n        totalStaked = 0;\n    }\n\n    function _calculateReward(\n        address _user,\n        uint256 _index\n    ) internal view returns (uint256) {\n        UserInfo storage user = userInfo[_user];\n        require(_index < user.depositItems.length, \"Index out of bound\");\n        if (startedTimestamp == 0 || user.amount == 0) return 0;\n\n        uint256 dt;\n        if (startedTimestamp > user.depositItems[_index].timestamp)\n            dt = block.timestamp - startedTimestamp;\n        else dt = block.timestamp - user.depositItems[_index].timestamp;\n\n        if (dt > user.depositItems[_index].duration)\n            dt = user.depositItems[_index].duration;\n\n        return\n            ((user.depositItems[_index].amount * dt) *\n                user.depositItems[_index].apy) /\n            100 /\n            365 days;\n    }\n\n    function startReward() external onlyOwner {\n        require(startedTimestamp == 0, \"Can only start rewards once\");\n        startedTimestamp = block.timestamp;\n    }\n\n    function stopReward() external onlyOwner {\n        startedTimestamp = 0;\n        apy1 = 0;\n        apy2 = 0;\n        apy3 = 0;\n    }\n\n    function getStakedTokens(address _user) external view returns (uint256) {\n        UserInfo storage user = userInfo[_user];\n        return user.amount;\n    }\n\n    function getStakedItemLength(\n        address _user\n    ) external view returns (uint256) {\n        UserInfo storage user = userInfo[_user];\n        return user.depositItems.length;\n    }\n\n    function getStakedItemAPY(\n        address _user,\n        uint256 _index\n    ) external view returns (uint256) {\n        UserInfo storage user = userInfo[_user];\n        require(_index < user.depositItems.length, \"Index out of bound\");\n        return user.depositItems[_index].apy;\n    }\n\n    function getStakedItemDuration(\n        address _user,\n        uint256 _index\n    ) external view returns (uint256) {\n        UserInfo storage user = userInfo[_user];\n        require(_index < user.depositItems.length, \"Index out of bound\");\n        return user.depositItems[_index].duration;\n    }\n\n    function getStakedItemAmount(\n        address _user,\n        uint256 _index\n    ) external view returns (uint256) {\n        UserInfo storage user = userInfo[_user];\n        require(_index < user.depositItems.length, \"Index out of bound\");\n        return user.depositItems[_index].amount;\n    }\n\n    function getStakedItemReward(\n        address _user,\n        uint256 _index\n    ) external view returns (uint256) {\n        return _calculateReward(_user, _index);\n    }\n\n    function getStakedItemTimestamp(\n        address _user,\n        uint256 _index\n    ) external view returns (uint256) {\n        UserInfo storage user = userInfo[_user];\n        require(_index < user.depositItems.length, \"Index out of bound\");\n        if (startedTimestamp > user.depositItems[_index].timestamp)\n            return startedTimestamp;\n        return user.depositItems[_index].timestamp;\n    }\n\n    function getStakedItemElapsed(\n        address _user,\n        uint256 _index\n    ) external view returns (uint256) {\n        UserInfo storage user = userInfo[_user];\n        require(_index < user.depositItems.length, \"Index out of bound\");\n\n        uint256 depositTimestamp = user.depositItems[_index].timestamp;\n        if (startedTimestamp > depositTimestamp)\n            depositTimestamp = startedTimestamp;\n\n        return block.timestamp - depositTimestamp;\n    }\n\n    // Stake primary tokens\n    function deposit(uint256 _option) public payable nonReentrant {\n        require(msg.value > 0, \"Invalid Amount\");\n        require(_option == 1 || _option == 2 || _option == 3, \"Invalid Option\");\n\n        UserInfo storage user = userInfo[msg.sender];\n        user.amount += msg.value;\n        totalStaked += msg.value;\n\n        uint256 apy;\n        uint256 duration;\n\n        if (_option == 1) {\n            apy = apy1;\n            duration = 30 days;\n        } else if (_option == 2) {\n            apy = apy2;\n            duration = 60 days;\n        } else {\n            apy = apy3;\n            duration = 120 days;\n        }\n\n        user.depositItems.push(\n            DepositItem({\n                apy: apy,\n                duration: duration,\n                amount: msg.value,\n                timestamp: block.timestamp\n            })\n        );\n\n        emit Deposit(msg.sender, msg.value);\n    }\n\n    // Withdraw primary tokens from STAKING.\n    function withdraw(uint256 _index) public nonReentrant {\n        require(startedTimestamp > 0, \"Not started yet\");\n\n        UserInfo storage user = userInfo[msg.sender];\n        require(_index < user.depositItems.length, \"Index out of bound\");\n\n        uint256 amount = user.depositItems[_index].amount;\n        user.amount -= amount;\n        totalStaked -= amount;\n\n        uint256 dt = block.timestamp - user.depositItems[_index].timestamp;\n        if (dt > user.depositItems[_index].duration) {\n            dt = user.depositItems[_index].duration;\n        }\n\n        uint256 reward = (amount * dt * user.depositItems[_index].apy) /\n            100 /\n            365 days;\n\n        // Transfer ETH back\n        payable(msg.sender).transfer(amount);\n\n        // Transfer reward tokens\n        rewardToken.safeTransfer(msg.sender, reward);\n\n        // Remove the deposit item\n        for (uint256 i = _index; i < user.depositItems.length - 1; i++) {\n            user.depositItems[i] = user.depositItems[i + 1];\n        }\n        user.depositItems.pop();\n\n        emit Withdraw(msg.sender, amount);\n    }\n\n    // Withdraw reward. EMERGENCY ONLY. This allows the owner to migrate rewards to a new staking pool since we are not minting new tokens.\n    function withdrawEmergencyReward(uint256 _amount) external onlyOwner {\n        require(\n            _amount <= rewardToken.balanceOf(address(this)) - totalStaked,\n            \"not enough tokens to take out\"\n        );\n        rewardToken.safeTransfer(address(msg.sender), _amount);\n    }\n\n    function rewardsRemaining() public view returns (uint256) {\n        uint256 reward = rewardToken.balanceOf(address(this));\n        if (reward > totalStaked) reward -= totalStaked;\n        else reward = 0;\n        return reward;\n    }\n\n    function updateApy(\n        uint256 newApy1,\n        uint256 newApy2,\n        uint256 newApy3\n    ) external onlyOwner {\n        require(\n            newApy1 <= 10000 && newApy2 <= 10000 && newApy3 <= 10000,\n            \"APY must be below 10000%\"\n        );\n        apy1 = newApy1;\n        apy2 = newApy2;\n        apy3 = newApy3;\n    }\n\n    function updateExitPenalty(uint256 newPenaltyPerc) external onlyOwner {\n        require(newPenaltyPerc <= 20, \"May not set higher than 20%\");\n        exitPenaltyPerc = newPenaltyPerc;\n    }\n\n    function updateFee(\n        address newFeeAddress,\n        uint256 newWithdrawFee\n    ) external onlyOwner {\n        feeAddress = newFeeAddress;\n        withdrawFee = newWithdrawFee;\n    }\n\n    function reset() external onlyOwner {\n        uint256 balance = rewardToken.balanceOf(address(this));\n        rewardToken.safeTransfer(address(msg.sender), balance);\n        totalStaked = 0;\n    }\n}\n",
  "sourcePath": "/Users/yosgi/freelancer/DeFiForge/contracts/contracts/Staking.sol",
  "compiler": {
    "name": "solc",
    "version": "0.8.20+commit.a1b79de6.Emscripten.clang"
  },
  "schemaVersion": "3.4.16",
  "updatedAt": "2024-12-07T09:40:37.050Z",
  "devdoc": {
    "errors": {
      "OwnableInvalidOwner(address)": [
        {
          "details": "The owner is not a valid owner account. (eg. `address(0)`)"
        }
      ],
      "OwnableUnauthorizedAccount(address)": [
        {
          "details": "The caller account is not authorized to perform an operation."
        }
      ],
      "ReentrancyGuardReentrantCall()": [
        {
          "details": "Unauthorized reentrant call."
        }
      ],
      "SafeERC20FailedOperation(address)": [
        {
          "details": "An operation with an ERC-20 token failed."
        }
      ]
    },
    "kind": "dev",
    "methods": {
      "owner()": {
        "details": "Returns the address of the current owner."
      },
      "renounceOwnership()": {
        "details": "Leaves the contract without owner. It will not be possible to call `onlyOwner` functions. Can only be called by the current owner. NOTE: Renouncing ownership will leave the contract without an owner, thereby disabling any functionality that is only available to the owner."
      },
      "transferOwnership(address)": {
        "details": "Transfers ownership of the contract to a new account (`newOwner`). Can only be called by the current owner."
      }
    },
    "version": 1
  },
  "userdoc": {
    "kind": "user",
    "methods": {},
    "version": 1
  }
}