{
  "contractName": "ChainlinkOracle",
  "abi": [
    {
      "inputs": [],
      "name": "InvalidPrice",
      "type": "error"
    },
    {
      "inputs": [
        {
          "internalType": "contract AggregatorV3Interface",
          "name": "",
          "type": "AggregatorV3Interface"
        }
      ],
      "name": "getTimeout",
      "outputs": [
        {
          "internalType": "uint256",
          "name": "",
          "type": "uint256"
        }
      ],
      "stateMutability": "pure",
      "type": "function"
    }
  ],
  "bytecode": "0x60c0610039600b82828239805160001a60731461002c57634e487b7160e01b600052600060045260246000fd5b30600052607381538281f3fe730000000000000000000000000000000000000000301460806040526004361060335760003560e01c806347096f81146038575b600080fd5b604a6043366004605c565b50611c2090565b60405190815260200160405180910390f35b600060208284031215606d57600080fd5b81356001600160a01b0381168114608357600080fd5b939250505056fea26469706673582212209ca97592ff28c0a497c063207ad03936762e05d617c0a774bc8a1392f9a07afb64736f6c63430008140033",
  "immutableReferences": {},
  "source": "// SPDX-License-Identifier: MIT\n\npragma solidity ^0.8.18;\n\nimport \"@chainlink/contracts/src/v0.8/shared/interfaces/AggregatorV3Interface.sol\";\n\nlibrary ChainlinkOracle {\n    error InvalidPrice();\n\n    // duration after which returned price is considered outdated\n    uint256 private constant TIMEOUT = 2 hours;\n\n    // chainlink USD feed are in 8 decimals\n    // need to multiply by 10^10 to return price in 18 decimals\n    uint256 private constant USD_ORACLE_DECIMALS = 10;\n\n    /// @notice Fetch token price using chainlink price feeds\n    /// @dev Checks that returned price is positive and not stale\n    /// @param priceFeed chainlink aggregator interface\n    /// @return price of the token in USD (scaled by 18 decimals)\n    function getPrice(\n        AggregatorV3Interface priceFeed\n    ) internal view returns (uint256 price) {\n        (\n            uint80 roundId,\n            int256 answer,\n            ,\n            uint256 updatedAt,\n            uint80 answeredInRound\n        ) = priceFeed.latestRoundData();\n\n        if (\n            answer <= 0 ||\n            updatedAt == 0 ||\n            answeredInRound < roundId ||\n            block.timestamp - updatedAt > TIMEOUT\n        ) revert InvalidPrice();\n\n        price = uint256(answer) * 10 ** USD_ORACLE_DECIMALS;\n    }\n\n    /// @notice Get timeout duration after which prices are considered stale\n    function getTimeout(AggregatorV3Interface) public pure returns (uint256) {\n        return TIMEOUT;\n    }\n}\n",
  "sourcePath": "/Users/yosgi/freelancer/DeFiForge/contracts/contracts/libraries/ChainlinkOracle.sol",
  "compiler": {
    "name": "solc",
    "version": "0.8.20+commit.a1b79de6.Emscripten.clang"
  },
  "schemaVersion": "3.4.16",
  "updatedAt": "2024-12-06T09:30:41.187Z",
  "devdoc": {
    "kind": "dev",
    "methods": {},
    "version": 1
  },
  "userdoc": {
    "kind": "user",
    "methods": {
      "getTimeout(AggregatorV3Interface)": {
        "notice": "Get timeout duration after which prices are considered stale"
      }
    },
    "version": 1
  }
}