{
  "contractName": "VaultModule",
  "abi": [
    {
      "anonymous": false,
      "inputs": [
        {
          "indexed": true,
          "internalType": "address",
          "name": "user",
          "type": "address"
        },
        {
          "indexed": true,
          "internalType": "address",
          "name": "token",
          "type": "address"
        },
        {
          "indexed": false,
          "internalType": "uint256",
          "name": "amount",
          "type": "uint256"
        },
        {
          "indexed": false,
          "internalType": "uint256",
          "name": "shares",
          "type": "uint256"
        }
      ],
      "name": "Borrow",
      "type": "event"
    },
    {
      "anonymous": false,
      "inputs": [
        {
          "indexed": true,
          "internalType": "address",
          "name": "user",
          "type": "address"
        },
        {
          "indexed": true,
          "internalType": "address",
          "name": "token",
          "type": "address"
        },
        {
          "indexed": false,
          "internalType": "uint256",
          "name": "amount",
          "type": "uint256"
        },
        {
          "indexed": false,
          "internalType": "uint256",
          "name": "shares",
          "type": "uint256"
        }
      ],
      "name": "Deposit",
      "type": "event"
    },
    {
      "anonymous": false,
      "inputs": [
        {
          "indexed": true,
          "internalType": "address",
          "name": "user",
          "type": "address"
        },
        {
          "indexed": true,
          "internalType": "address",
          "name": "token",
          "type": "address"
        },
        {
          "indexed": false,
          "internalType": "uint256",
          "name": "amount",
          "type": "uint256"
        },
        {
          "indexed": false,
          "internalType": "uint256",
          "name": "shares",
          "type": "uint256"
        }
      ],
      "name": "Repay",
      "type": "event"
    },
    {
      "anonymous": false,
      "inputs": [
        {
          "indexed": true,
          "internalType": "address",
          "name": "user",
          "type": "address"
        },
        {
          "indexed": true,
          "internalType": "address",
          "name": "token",
          "type": "address"
        },
        {
          "indexed": false,
          "internalType": "uint256",
          "name": "amount",
          "type": "uint256"
        },
        {
          "indexed": false,
          "internalType": "uint256",
          "name": "shares",
          "type": "uint256"
        }
      ],
      "name": "Withdraw",
      "type": "event"
    },
    {
      "inputs": [
        {
          "internalType": "address",
          "name": "token",
          "type": "address"
        },
        {
          "internalType": "uint256",
          "name": "amount",
          "type": "uint256"
        },
        {
          "internalType": "address",
          "name": "user",
          "type": "address"
        }
      ],
      "name": "deposit",
      "outputs": [
        {
          "internalType": "uint256",
          "name": "shares",
          "type": "uint256"
        }
      ],
      "stateMutability": "nonpayable",
      "type": "function"
    },
    {
      "inputs": [
        {
          "internalType": "address",
          "name": "token",
          "type": "address"
        },
        {
          "internalType": "uint256",
          "name": "amount",
          "type": "uint256"
        },
        {
          "internalType": "address",
          "name": "user",
          "type": "address"
        }
      ],
      "name": "borrow",
      "outputs": [
        {
          "internalType": "uint256",
          "name": "shares",
          "type": "uint256"
        }
      ],
      "stateMutability": "nonpayable",
      "type": "function"
    },
    {
      "inputs": [
        {
          "internalType": "address",
          "name": "token",
          "type": "address"
        },
        {
          "internalType": "uint256",
          "name": "amount",
          "type": "uint256"
        },
        {
          "internalType": "address",
          "name": "user",
          "type": "address"
        }
      ],
      "name": "repay",
      "outputs": [
        {
          "internalType": "uint256",
          "name": "shares",
          "type": "uint256"
        }
      ],
      "stateMutability": "nonpayable",
      "type": "function"
    },
    {
      "inputs": [
        {
          "internalType": "address",
          "name": "token",
          "type": "address"
        },
        {
          "internalType": "uint256",
          "name": "shares",
          "type": "uint256"
        },
        {
          "internalType": "address",
          "name": "user",
          "type": "address"
        }
      ],
      "name": "withdraw",
      "outputs": [
        {
          "internalType": "uint256",
          "name": "amount",
          "type": "uint256"
        }
      ],
      "stateMutability": "nonpayable",
      "type": "function"
    }
  ],
  "bytecode": "0x608060405234801561001057600080fd5b50610aaf806100206000396000f3fe608060405234801561001057600080fd5b506004361061004c5760003560e01c80635ceae9c41461005157806369328dec146100765780636c665a5514610089578063f45346dc1461009c575b600080fd5b61006461005f36600461096c565b6100af565b60405190815260200160405180910390f35b61006461008436600461096c565b6102a1565b61006461009736600461096c565b61045c565b6100646100aa36600461096c565b610637565b6001600160a01b03831660009081526020818152604080832081518083019092526001908101546001600160801b038082168452600160801b90910416928201929092526100fe91859061083d565b6001600160a01b0385166000908152602081905260408120600101805492935085929091906101379084906001600160801b03166109be565b92506101000a8154816001600160801b0302191690836001600160801b0316021790555080600080866001600160a01b03166001600160a01b0316815260200190815260200160002060010160000160108282829054906101000a90046001600160801b03166101a791906109be565b82546001600160801b039182166101009390930a9283029190920219909116179055506040516323b872dd60e01b81526001600160a01b038381166004830152306024830152604482018590528516906323b872dd906064016020604051808303816000875af115801561021f573d6000803e3d6000fd5b505050506040513d601f19601f8201168201806040525081019061024391906109e5565b50836001600160a01b0316826001600160a01b03167fe4a1ae657f49cb1fb1c7d3a94ae6093565c4c8c0e03de488f79c377c3c3a24e08584604051610292929190918252602082015260400190565b60405180910390a39392505050565b6001600160a01b0383166000908152602081815260408083208151808301909252546001600160801b038082168352600160801b90910416918101919091526102ec908460016108d8565b6001600160a01b0385166000908152602081905260408120805492935083929091906103229084906001600160801b03166109be565b82546101009290920a6001600160801b038181021990931691831602179091556001600160a01b038616600090815260208190526040902080548693509091601091610377918591600160801b9004166109be565b82546001600160801b039182166101009390930a92830291909202199091161790555060405163a9059cbb60e01b81526001600160a01b0383811660048301526024820183905285169063a9059cbb906044016020604051808303816000875af11580156103e9573d6000803e3d6000fd5b505050506040513d601f19601f8201168201806040525081019061040d91906109e5565b50836001600160a01b0316826001600160a01b03167ff341246adaac6f497bc2a656f546ab9e182111d630394f0c57c710a59a2cb5678386604051610292929190918252602082015260400190565b6001600160a01b0383166000908152602081815260408083208151808301909252600101546001600160801b038082168352600160801b90910416918101919091526104a990848361083d565b6001600160a01b0385166000908152602081905260408120600101805492935085929091906104e29084906001600160801b0316610a07565b92506101000a8154816001600160801b0302191690836001600160801b0316021790555080600080866001600160a01b03166001600160a01b0316815260200190815260200160002060010160000160108282829054906101000a90046001600160801b03166105529190610a07565b82546001600160801b039182166101009390930a92830291909202199091161790555060405163a9059cbb60e01b81526001600160a01b0383811660048301526024820185905285169063a9059cbb906044016020604051808303816000875af11580156105c4573d6000803e3d6000fd5b505050506040513d601f19601f820116820180604052508101906105e891906109e5565b50836001600160a01b0316826001600160a01b03167fc1561b330e73faa7d5d1ac03c968d8f359b0191ccdb9cc002cf7d8eb6ae038cb8584604051610292929190918252602082015260400190565b600080831161067d5760405162461bcd60e51b815260206004820152600e60248201526d125b9d985b1a5908185b5bdd5b9d60921b604482015260640160405180910390fd5b6001600160a01b0384166000908152602081815260408083208151808301909252546001600160801b038082168352600160801b90910416918101919091526106c791859061083d565b6001600160a01b0385166000908152602081905260408120805492935085929091906106fd9084906001600160801b0316610a07565b82546101009290920a6001600160801b038181021990931691831602179091556001600160a01b038616600090815260208190526040902080548493509091601091610752918591600160801b900416610a07565b82546001600160801b039182166101009390930a9283029190920219909116179055506040516323b872dd60e01b81526001600160a01b038381166004830152306024830152604482018590528516906323b872dd906064016020604051808303816000875af11580156107ca573d6000803e3d6000fd5b505050506040513d601f19601f820116820180604052508101906107ee91906109e5565b50836001600160a01b0316826001600160a01b03167fdcbc1c05240f31ff3ad067ef1ee35ce4997762752e3a095284854544f4c709d78584604051610292929190918252602082015260400190565b82516000906001600160801b031681036108585750816108d1565b835160208501516001600160801b0391821691610876911685610a27565b6108809190610a44565b90508180156108be57508284602001516001600160801b031685600001516001600160801b0316836108b29190610a27565b6108bc9190610a44565b105b156108d1576108ce816001610a66565b90505b9392505050565b600083602001516001600160801b03166000036108f65750816108d1565b602084015184516001600160801b0391821691610914911685610a27565b61091e9190610a44565b90508180156108be57508284600001516001600160801b031685602001516001600160801b0316836108b29190610a27565b80356001600160a01b038116811461096757600080fd5b919050565b60008060006060848603121561098157600080fd5b61098a84610950565b92506020840135915061099f60408501610950565b90509250925092565b634e487b7160e01b600052601160045260246000fd5b6001600160801b038281168282160390808211156109de576109de6109a8565b5092915050565b6000602082840312156109f757600080fd5b815180151581146108d157600080fd5b6001600160801b038181168382160190808211156109de576109de6109a8565b8082028115828204841417610a3e57610a3e6109a8565b92915050565b600082610a6157634e487b7160e01b600052601260045260246000fd5b500490565b80820180821115610a3e57610a3e6109a856fea2646970667358221220e56a2a3b0fc58a49424851eea24eb837bbb1b03d674ca2bd6a40c2401a48601f64736f6c63430008140033",
  "immutableReferences": {},
  "source": "// SPDX-License-Identifier: MIT\npragma solidity ^0.8.18;\n\nimport \"@openzeppelin/contracts/token/ERC20/IERC20.sol\";\nimport \"./libraries/VaultAccounting.sol\";\n\ncontract VaultModule {\n    using VaultAccounting for PoolStructs.Vault;\n\n    mapping(address => PoolStructs.TokenVault) private vaults;\n\n    event Deposit(address indexed user, address indexed token, uint256 amount, uint256 shares);\n    event Borrow(address indexed user, address indexed token, uint256 amount, uint256 shares);\n    event Repay(address indexed user, address indexed token, uint256 amount, uint256 shares);\n    event Withdraw(address indexed user, address indexed token, uint256 amount, uint256 shares);\n\n    function deposit(address token, uint256 amount, address user) external returns (uint256 shares) {\n        require(amount > 0, \"Invalid amount\");\n        shares = vaults[token].totalAsset.toShares(amount, false);\n        vaults[token].totalAsset.amount += uint128(amount);\n        vaults[token].totalAsset.shares += uint128(shares);\n\n        IERC20(token).transferFrom(user, address(this), amount);\n        emit Deposit(user, token, amount, shares);\n    }\n\n    function borrow(address token, uint256 amount, address user) external returns (uint256 shares) {\n        shares = vaults[token].totalBorrow.toShares(amount, false);\n        vaults[token].totalBorrow.amount += uint128(amount);\n        vaults[token].totalBorrow.shares += uint128(shares);\n\n        IERC20(token).transfer(user, amount);\n        emit Borrow(user, token, amount, shares);\n    }\n\n    function repay(address token, uint256 amount, address user) external returns (uint256 shares) {\n        shares = vaults[token].totalBorrow.toShares(amount, true);\n        vaults[token].totalBorrow.amount -= uint128(amount);\n        vaults[token].totalBorrow.shares -= uint128(shares);\n\n        IERC20(token).transferFrom(user, address(this), amount);\n        emit Repay(user, token, amount, shares);\n    }\n\n    function withdraw(address token, uint256 shares, address user) external returns (uint256 amount) {\n        amount = vaults[token].totalAsset.toAmount(shares, true);\n        vaults[token].totalAsset.amount -= uint128(amount);\n        vaults[token].totalAsset.shares -= uint128(shares);\n\n        IERC20(token).transfer(user, amount);\n        emit Withdraw(user, token, amount, shares);\n    }\n}\n",
  "sourcePath": "/Users/yosgi/freelancer/DeFiForge/contracts/contracts/VaultModule.sol",
  "compiler": {
    "name": "solc",
    "version": "0.8.20+commit.a1b79de6.Emscripten.clang"
  },
  "schemaVersion": "3.4.16",
  "updatedAt": "2024-12-06T09:30:41.184Z",
  "devdoc": {
    "kind": "dev",
    "methods": {},
    "version": 1
  },
  "userdoc": {
    "kind": "user",
    "methods": {},
    "version": 1
  }
}